:100000000C94DC100C940D110C940D110C940D112A
:100010000C940D110C940D110C940D110C940D11E8
:100020000C940D110C940D110C940D110C940D11D8
:100030000C940D110C940D110C940D110C940D11C8
:100040000C940D110C9483B10C940D110C940D11A2
:100050000C940D110C940D110C94D0A90C94DEA8E5
:100060000C940D110C94E2CF0C940D110C940D1105
:100070000C940D110C940D110C940D110C940D1188
:100080000C940D110C940D110C940D110C940D1178
:100090000C940D110C940D110C940D110C940D1168
:1000A0000C940D110C940D110C940D110C940D1158
:1000B0000C940D110C940D110C940D110C940D1148
:1000C0000C940D110C940D110C940D110C940AA7A5
:1000D0000C94E1A60C940D110C940D110C940D11BF
:1000E0000C940D1126134B149815A31425292529BA
:1000F000F7171B184D1825292529E119D71B281C8E
:100100002529511E25292529B91F252925295922A7
:100110008822B324EB257A267FA682A671A675A62F
:100120007BA6B9A686A68AA690A694A698A69EA601
:10013000A2A6A6A6B9A6ACA6B0A6B4A6FAA7FFA783
:1001400004A80EA818A891A822A82AA832A83CA8FA
:1001500046A850A85FA869A891A873A87DA887A8F9
:10016000084AD73B3BCE016E84BCBFFDC12F3D6C1E
:1001700074319ABD56833DDA3D00C77F11BED9E484
:10018000BB4C3E916BAAAABE000000803F05A84C64
:10019000CDB2D44EB93836A9020C50B99186880830
:1001A0003CA6AAAA2ABE000000803F004E414E494C
:1001B0004E495459494E46CDCCCC3D0AD7233C1725
:1001C000B7D13877CC2B329595E6241FB14F0A0072
:1001D0000020410000C84200401C4620BCBE4CCA62
:1001E0001B0E5AAEC59D7400407A10F35A00A072DF
:1001F0004E18090010A5D4E80000E8764817000062
:10020000E40B54020000CA9A3B000000E1F505002F
:100210000080969800000040420F000000A0860178
:10022000000000102700000000E803000000006448
:1002300000000000000A00000000000100000000B3
:10024000002C76D888DC674F0823DFC1DFAE59E188
:10025000B1B796E5E3E453C63AE651997696E8E6F7
:10026000C28426EB898C9B62ED407C6FFCEFBC9CCA
:100270009F40F2BAA56FA5F490055A2AF75C936BDC
:100280006CF9676DC11BFCE0E40D47FEF520E6B597
:1002900000D0ED902E0300943577050080841E0871
:1002A0000000204E0A000000C80C333333330F988F
:1002B0006E12831141EF8D2114893BE65516CFFE56
:1002C000E6DB18D1844B381BF77C1D901DA4BBE4E2
:1002D00024203284725E228100C9F124ECA1E53D24
:1002E000274D3234004D32332025730054256900E8
:1002F0004D3130362053323535004D3130392053B1
:100300002569004D31393020532569004730205A86
:100310002573004D31303920532569004D31393076
:1003200020532569004D32340047312046313030AA
:10033000205A31302E3200473238004731204631C2
:100340003030205A2D330047312058333020593275
:10035000373020463530303000473120463130309C
:10036000205A333B0047312046313030205A2D335C
:100370000047312058323730205932373020463547
:100380003030300047312046313030205A333B0086
:1003900047312046313030205A2D33004731205824
:1003A0003237302059333020463530303000473135
:1003B0002046313030205A333B004731204631301F
:1003C00030205A2D330047312058333020593330F4
:1003D0002046353030300047312046313030205A09
:1003E000333B0047312046313030205A2D3300470F
:1003F00031205831353020593135302046353030B4
:10040000300047312046313030205A333B004731ED
:100410002046313030205A302E32004731205831BA
:1004200035302059313530204635303030004731B5
:100430002046313030205A31302E323B004732399D
:100440000047312046323030205A302E32004739B2
:100450003000473238205830205930205A30004779
:1004600031205A302E322020463135300047323884
:10047000205A3000473238004D3834004731205A76
:10048000302E32204631353000473238004D313081
:100490003920532569004D313930205325690047F3
:1004A0003020583130205931302046333030300040
:1004B00047302058313020593130204633303030E9
:1004C0000047322F47332062616420706172616D92
:1004D00065746572730A005A2070726F6265206FCE
:1004E00075742E206265640A00473238205A20460F
:1004F0006F7262696464656E0A00205A3A200020B7
:10050000593A200042656420583A20005344207034
:1005100072696E74696E67206279746520004E6F2F
:1005200074205344207072696E74696E670A0046C5
:10053000696C652064656C657465643A0044656C3B
:100540006574696F6E206661696C65642C2046690C
:100550006C653A20006F70656E206661696C656439
:100560002C2046696C653A20002569730025696D69
:1005700020256973002569682025696D2025697328
:1005800000256964202569682025696D2025697327
:100590000025697920256964202569682025696D11
:1005A00020256973005072696E742074696D653A14
:1005B00020004B494C4C45442E20004732382058EF
:1005C000302059300020573A007A5F6D696E3A202A
:1005D00000795F6D696E3A2000785F6D696E3A2030
:1005E000005265706F7274696E6720656E64737413
:1005F0006F70207374617475730A00205A0020595B
:1006000000580020204D61783A2000205A002059DF
:1006100000580020204D696E3A20004F6E20004F98
:10062000666600536F667420656E6473746F7073D2
:100630003A2000000136372603FF3C3D380EFF2EDE
:10064000303E12FFFF0C0809FFFFFF1A1C18FFFFC6
:1006500008440AFF43FFFFFFFFFFFF20643A00202A
:10066000693A0020703A0043290A0061626C6564AF
:1006700020286D696E2074656D702000436F6C6476
:10068000206578747275646573206172652000233B
:10069000646566696E65202044454641554C545F4B
:1006A0004B64200023646566696E652020444546DE
:1006B00041554C545F4B69200023646566696E6543
:1006C000202044454641554C545F4B702000504912
:1006D00044204175746F74756E652066696E697328
:1006E000686564212050757420746865206C61739E
:1006F00074204B702C204B6920616E64204B642069
:10070000636F6E7374616E74732066726F6D2062B6
:10071000656C6F7720696E746F20436F6E666967D2
:1007200075726174696F6E2E680A005049442041E9
:1007300075746F74756E65206661696C65642120DF
:1007400074696D656F75740A005049442041757471
:100750006F74756E65206661696C656421205465EF
:100760006D706572617475726520746F6F20686951
:1007700067680A00204B643A2000204B693A200049
:10078000204B703A20000A20436C61737369632028
:10079000504944200A002054753A2000204B753AF5
:1007A0002000206D61783A2000206D696E3A2000AB
:1007B00020643A200020626961733A20004F666627
:1007C0000A004661646520486569676874200042D4
:1007D0006564204C6576656C696E672000466169CA
:1007E0006C656420746F20656E61626C6520426583
:1007F00064204C6576656C696E670A004D657368A8
:1008000020706F696E742063616E6E6F7420626514
:10081000207265736F6C7665640A004D3432312046
:10082000696E636F727265637420706172616D6569
:100830007465722075736167650A00546F6F206676
:1008400061722066726F6D207265666572656E6397
:100850006520706F696E740A00207A70726F62652D
:100860005F7A6F66667365743D20007A5F6D696EAE
:100870003A20202D3230207A5F6D61783A20203284
:1008800030005A204F666673657420004E6F2063F7
:10089000617365206C696768740A004163746976E6
:1008A000652045787472756465723A2000556E6BE8
:1008B0006E6F776E20636F6D6D616E643A202200FB
:1008C0004B494C4C45442E2000202D20496E76612A
:1008D0006C6964206578747275646572206E756DDC
:1008E00062657220210A002020506C616E6E657274
:1008F00042756666657242797465733A20002046D7
:10090000726565204D656D6F72793A2000436F6D99
:1009100070696C65643A204465632020362032306B
:1009200031380A00207C20417574686F723A204388
:10093000522D3130532050726F0A00323031372D32
:1009400031302D31302031323A303000204C61735B
:100950007420557064617465643A20005665722095
:10096000312E36302E330A004D61726C696E0020D4
:10097000536F6674776172652052657365740A00FF
:10098000205761746368646F672052657365740AE9
:10099000002042726F776E206F7574205265736508
:1009A000740A002045787465726E616C205265731C
:1009B00065740A00506F77657255700A0073746130
:1009C00072740A006572726F722077726974696E50
:1009D0006720746F2066696C650A00205A3A00200F
:1009E000593A0020583A00656E6473746F70732032
:1009F0006869743A2000446F6E6520736176696E91
:100A0000672066696C652E0A004D3239004E6F20F2
:100A10004C696E65204E756D6265722077697468E9
:100A200020636865636B73756D2C204C6173742053
:100A30004C696E653A20004B494C4C45442E2000D1
:100A40005072696E7465722073746F707065642083
:100A500064756520746F206572726F72732E204604
:100A6000697820746865206572726F7220616E64A7
:100A700020757365204D39393920746F2072657384
:100A8000746172742E202854656D7065726174757E
:100A900072652069732072657365742E20536574C6
:100AA0002069742061667465722072657374617266
:100AB00074696E67290A004E6F20436865636B7323
:100AC000756D2077697468206C696E65206E756D30
:100AD0006265722C204C617374204C696E653A20FB
:100AE00000636865636B73756D206D69736D617408
:100AF00063682C204C617374204C696E653A200049
:100B00004C696E65204E756D626572206973206E4A
:100B10006F74204C617374204C696E65204E756D46
:100B20006265722B312C204C617374204C696E65A8
:100B30003A20004D313130004D3331004D383420F2
:100B4000582059205A204500534420726561642082
:100B50006572726F720A00446F6E65207072696E02
:100B600074696E672066696C650A0020496E76615B
:100B70006C69642065787472756465722000000089
:100B8000000000000000000000000000964300008C
:100B900096430000C8437C3C3E5E2B3D3F2F5B5D8F
:100BA0003B2C2A225C004572726F72207772697446
:100BB000696E6720746F20454550524F4D210A00E1
:100BC00053442063617264206F6B0A006F70656E1E
:100BD000526F6F74206661696C65640A00766F6C91
:100BE000756D652E696E6974206661696C65640A4D
:100BF00000534420696E6974206661696C0A004D77
:100C00003234004D3233202573006175746F2569CD
:100C10002E670057726974696E6720746F20666969
:100C20006C653A20006F70656E206661696C656462
:100C30002C2046696C653A20006F70656E206661F5
:100C4000696C65642C2046696C653A200046696CC5
:100C5000652073656C65637465640A002053697A66
:100C6000653A200046696C65206F70656E65643A70
:100C700020006F70656E206661696C65642C20468B
:100C8000696C653A20002066696C653A20004E6FF9
:100C90007720002220706F73002220706172656ED1
:100CA000743A2200535542524F5554494E45204301
:100CB000414C4C207461726765743A22004B494C78
:100CC0004C45442E2000747279696E6720746F2041
:100CD00063616C6C207375622D67636F6465206659
:100CE000696C6573207769746820746F6F206D611B
:100CF0006E79206C6576656C732E204D4158206CA2
:100D00006576656C2069733A004572726F723A00BD
:100D100020746F6F206C6F6E6720657874727573C6
:100D2000696F6E2070726576656E7465640A002066
:100D3000636F6C6420657874727573696F6E207070
:100D4000726576656E7465640A00627573793A201F
:100D500070617573656420666F7220696E7075745A
:100D60000A00627573793A20706175736564206654
:100D70006F7220757365720A00627573793A20701C
:100D8000726F63657373696E670A004B494C4C451B
:100D9000442E20004B494C4C2063617573656420E0
:100DA0006279204B494C4C20627574746F6E2F70C1
:100DB000696E0A004B494C4C45442E20004B494C6F
:100DC0004C2063617573656420627920746F6F20B5
:100DD0006D75636820696E616374697665207469F6
:100DE0006D65202D2063757272656E7420636F6D62
:100DF0006D616E643A20005072696E74657220688D
:100E0000616C7465642E206B696C6C2829206361A9
:100E10006C6C6564210A0000000000000000000006
:100E200000000000004842000048420000804000EE
:100E30000000005761726E696E673A20486F6D69F5
:100E40006E672042756D702044697669736F7220F9
:100E50003C20310A000202040000A0400000A04033
:100E60000000004000009643000096430000C84385
:100E7000FFFFFF42696C696E656172204C657665A3
:100E80006C696E6720477269643A0A0020706F735C
:100E90006974696F6E206F7574206F662072616E61
:100EA00067652E0A003F50726F62652000206669F8
:100EB0007273740A005A0059005800486F6D65201B
:100EC0000052756E6E696E6720696E204452592D0E
:100ED00052554E206D6F64650A00473239204175C6
:100EE000746F20426564204C6576656C696E670A94
:100EF0000028422961636B00284629726F6E7400D6
:100F00002852296967687400284C29656674003F77
:100F10002856296572626F7365206C6576656C2052
:100F2000697320696D706C61757369626C652028E6
:100F3000302D34292E0A00426164205A2076616CDB
:100F400075650A004E6F2062696C696E656172207A
:100F5000677269640A0062696E004D313137204959
:100F60004E56414C494420444154412E00473020C4
:100F70005A25730047323820583020593000473006
:100F8000205A257300473932205A2573204525738E
:100F90000062696E0048617264636F646564204436
:100FA000656661756C742053657474696E6773202F
:100FB0004C6F616465640A00F4010000F4010000F4
:100FC0006400000088130000000096430000964370
:100FD0000000A0400000C8410000A0420000A04264
:100FE0000000C84300000C4320204D383531205A02
:100FF000005A2D50726F6265204F666673657420CB
:10100000286D6D293A0A0020440020490020204D17
:101010003330312050005049442073657474696E38
:1010200067733A0A00205A0020204D343230205392
:10103000004175746F20426564204C6576656C696B
:101040006E673A0A00205A0020590020204D3230A5
:1010500036205800486F6D65206F66667365743A78
:101060000A00204500205A00205900205800204244
:101070000020540020204D3230352053004164764A
:10108000616E6365643A20533C6D696E5F666565A9
:1010900064726174653E20543C6D696E5F74726168
:1010A00076656C5F66656564726174653E20423C7E
:1010B0006D696E5F7365676D656E745F74696D658C
:1010C0005F6D733E20583C6D61785F78795F6A652B
:1010D000726B3E205A3C6D61785F7A5F6A65726B15
:1010E0003E20453C6D61785F655F6A65726B3E0AC4
:1010F0000020540020520020204D32303420500077
:10110000416363656C65726174696F6E2028756EEA
:101110006974732F7332293A20503C7072696E746F
:101120005F616363656C3E20523C726574726163FB
:10113000745F616363656C3E20543C7472617665D4
:101140006C5F616363656C3E0A00204500205A00B5
:1011500020590020204D3230312058004D617869EF
:101160006D756D20416363656C65726174696F6E46
:101170002028756E6974732F7332293A0A0020454E
:1011800000205A0020590020204D323033205800D2
:101190004D6178696D756D20666565647261746511
:1011A000732028756E6974732F73293A0A002045DD
:1011B00000205A0020590020204D39322058005379
:1011C000746570732070657220756E69743A0A00D8
:1011D00020204D3230302044300A0020204D323063
:1011E000302044002044697361626C65640A0046E3
:1011F000696C616D656E742073657474696E677374
:101200003A0020204D3134392043203B20556E696F
:10121000747320696E2043656C736975730A0020CE
:1012200020473231202020203B20556E69747320E6
:10123000696E206D6D0A0020746F6F206C6F6E6791
:1012400020657874727573696F6E2070726576654B
:101250006E7465640A0020636F6C64206578747234
:101260007573696F6E2070726576656E7465640A59
:1012700000290A002062797465733B206372632041
:101280000053657474696E67732053746F7265647C
:10129000202800202863616C63756C617465642983
:1012A000210A0020213D2000454550524F4D20434A
:1012B0005243206D69736D61746368202D2028731B
:1012C000746F726564292000290A002062797465B0
:1012D000733B2063726320002073746F7265642017
:1012E00073657474696E677320726574726965766C
:1012F0006564202800204D61726C696E3D56343162
:10130000290A0028454550524F4D3D004545505251
:101310004F4D2076657273696F6E206D69736D61D4
:10132000746368200070012C0190012701B0012234
:1013300001C0011D01F00118011002130130020E5D
:10134000016002090190020401C002FF000003FADB
:10135000004003F5008003F000D003EB002004E61A
:10136000007004E100E004DC004005D700C005D2B5
:10137000004006CD00D006C8008007C3003008BE7C
:1013800000F008B900C009B400B00AAF00B00BAA61
:1013900000D00CA500000EA000500F9B00C01096BE
:1013A000005012910000148C00C0158700B0178205
:1013B00000B0197D00D01B7800001E730040206E25
:1013C0000090226900F024640040275F0090295AB1
:1013D00000E02B5500102E500020304B00103246FC
:1013E00000E033410090353C001037370070383250
:1013F00000A0392D00B03A2800A03B2300603C1E1D
:1014000000103D1900903D1400103E0F00703E0A80
:1014100000C03E0500003F0000403FFBFF803FF65C
:10142000FFC03FF1FF4572723A204D494E54454D81
:101430005020424544004572723A204D494E544571
:101440004D50004D494E54454D50207472696767A8
:1014500065726564004572723A204D415854454D9D
:101460005020424544004572723A204D415854453F
:101470004D50004D415854454D5020747269676776
:10148000657265640000002100240027002A002DF9
:10149000003000330001010000040107010A0100CF
:1014A000002200250028002B002E0031003400020D
:1014B000010000050108010B0100002000230026A7
:1014C0000029002C002F003200000100000301065B
:1014D00001090105050505070508080808020202BB
:1014E000020A0A08080404040401010101010101BF
:1014F000010303030303030303040707070C0C0C96
:101500000C0C0C0C0C02020202060606060606066D
:10151000060B0B0B0B0B0B0B0B010210202008080A
:101520001020401020408002010201080402010145
:10153000020408102040808040201008040201802E
:101540000402018040201008040201080402010185
:10155000020408102040800102040810204080008E
:10156000000A0B02090C0D0E08070304010000001D
:10157000000000000000000000000000000000006B
:101580000000000000000000000000121110000028
:10159000000000000000000000000000000000004B
:1015A0000000000000434F4D4D554E494341544902
:1015B0004F4E0044525952554E004552524F5253CD
:1015C00000494E464F004543484F004D6573682023
:1015D000706F696E742063616E6E6F742062652037
:1015E0007265736F6C7665640A00456E6420666987
:1015F0006C65206C6973740A00426567696E2066C9
:10160000696C65206C6973740A0050726F7465634D
:101610007465642050696E0A00202F002042403A11
:101620000020403A006F6B00473238205830205974
:10163000300020573A00C615C115BA15B315A515C7
:101640006F66660044454255473A004D31313320BC
:10165000530024F4D43050C38E20C2A24017828B92
:101660007011127A910D816CD90AA861E108C758EE
:101670006607615143061E4B5D05C145A7041A412B
:101680001104093D9803713931034036DB0265339B
:101690009102D4305402802E1D02632CEE01752A73
:1016A000C501B028A001102781018F2564012B24DA
:1016B0004B01E0223401AC211F018D200D01801F60
:1016C000FC00841EED00971DDF00B81CD200E61B55
:1016D000C600201BBC00641AB200B219A8000A1987
:1016E000A0006A189900D117910040178B00B51619
:1016F000840031167E00B31579003A157300C714C3
:101700006F0058146A00EE136600881363002513F7
:101710005E00C7125B006C12570015125400C11115
:10172000510070114F0021114B00D61049008D104F
:1017300047004610440002104200C00F4000800FD6
:101740003E00420F3C00060F3B00CB0E3800930ECC
:1017500037005C0E3500270E3400F30D3200C10D4A
:101760003100900D3000600D2E00320D2D00050D62
:101770002C00D90C2B00AE0C2900850C29005C0C28
:101780002700350C27000E0C2600E80B2400C40BA4
:101790002400A00B23007D0B23005A0B2100390BE2
:1017A0002100180B2000F80A1F00D90A1E00BB0AEE
:1017B0001E009D0A1D00800A1D00630A1C00470AC6
:1017C0001B002C0A1B00110A1A00F7091A00DD0978
:1017D0001900C4091900AB091900920917007B0907
:1017E0001800630917004C09160036091600200975
:1017F00016000A091500F5081500E0081400CC08C9
:101800001400B8081400A4081400900813007D0800
:1018100012006B0813005808120046081200340822
:101820001100230811001208110001081100F0072F
:101830001000E0071000D0071000C0071000B0072C
:101840000F00A107100091070E0083070F00740717
:101850000F0065070E0057070E0049070E003B07F3
:101860000D002E070E0020070D0013070D000607C0
:101870000D00F9060C00ED060D00E0060C00D40684
:101880000C00C8060C00BC060C00B0060C00A40638
:101890000B0099060C008D060B0082060B007706E4
:1018A0000B006C060B0061060A0057060B004C0685
:1018B0000A0042060A0038060A002E060A0024061C
:1018C0000A001A060A001006090007060A00FD05AC
:1018D0000900F4050900EB050900E2050900D90536
:1018E0000900D0050900C7050900BE050900B505B6
:1018F0000800AD050800A50509009C050800940531
:1019000008008C050800840508007C0508007405A3
:1019100008006C050700650508005D050700560511
:1019200008004E0507004705070040050800380578
:101930000700310507002A050700230507001C05DD
:101940000600160507000F0507000805060002053A
:101950000700FB040600F5040700EE040600E80497
:101960000600E2040700DB040600D5040600CF04ED
:101970000600C9040600C3040600BD040600B7043F
:101980000600B1040500AC040600A6040600A0048D
:1019900005009B04060095040500900406008A04D7
:1019A000050085040500800406007A04050075041E
:1019B0000500700405006B04050066040500610461
:1019C00005005C04050057040500520405004D04A1
:1019D000050048040500430405003E0404003A04E1
:1019E000050035040500300404002C04050027041C
:1019F0000400230405001E0404001A040400160455
:101A00000500110404000D04040009040500040489
:101A1000040000040400FC030400F8030400F403C1
:101A20000400F0030400EC030400E8030400E403F2
:101A30000400E0030400DC030400D8030400D40322
:101A40000400D0030400CC030400C8030300C50352
:101A5000030024F404D9201BC40C5C0E9804C409B0
:101A60005F0265077101F405F900FB04B300480447
:101A70008700C10369005803550003034500BE02F7
:101A80003A008402310053022A0029022500040290
:101A90002000E4011C00C8011900AF0117009801E3
:101AA0001400840113007101100061011000510144
:101AB0000E0043010D0036010B002B010B0020012D
:101AC0000B00150109000C01090003010800FB00CF
:101AD0000800F3000800EB000700E4000600DE0049
:101AE0000600D8000600D2000600CC000500C700A2
:101AF0000500C2000500BD000400B9000400B500E7
:101B00000400B1000400AD000400A9000400A50019
:101B10000300A20003009F0004009B000300980044
:101B200003009500020093000300900003008D0065
:101B300002008B000300880002008600020084007F
:101B40000300810002007F0002007D0002007B0094
:101B500002007900020077000100760002007400A4
:101B6000020072000100710002006F0002006D00AF
:101B700001006C0002006A000100690002006700B9
:101B800001006600010065000100640002006200BF
:101B9000010061000100600001005F0002005D00C3
:101BA00001005C0001005B0001005A0001005900C7
:101BB00001005800010057000100560001005500C7
:101BC00001005400010053000000530001005200C6
:101BD000010051000100500001004F0001004E00C3
:101BE00000004E0001004D0001004C0001004B00C0
:101BF00000004B0001004A000100490001004800BC
:101C000000004800010047000100460000004600B7
:101C100001004500000045000100440001004300B0
:101C200000004300010042000000420001004100AA
:101C3000000041000100400001003F0000003F00A3
:101C400001003E0000003E0001003D0000003D009C
:101C500001003C0000003C0000003C0001003B0093
:101C600000003B0001003A0000003A00010039008A
:101C70000000390001003800000038000000380082
:101C80000100370000003700010036000000360078
:101C9000000036000100350000003500000035006E
:101CA0000100340000003400000034000100330063
:101CB0000000330000003300010032000000320059
:101CC000000032000100310000003100000031004E
:101CD00001003000000030000000300001002F0043
:101CE00000002F0000002F0000002F0001002E0038
:101CF00000002E0000002E0001002D0000002D002D
:101D000000002D0000002D0001002C0000002C0020
:101D100000002C0000002C0001002B0000002B0014
:101D200000002B0000002B0001002A0000002A0008
:101D300000002A0000002A000100290000002900FC
:101D400000002900000029000000290001002800EF
:101D500000002800000028000000280000002800E3
:101D600001002700000027000000270000002700D6
:101D700000002700010026000000260000002600C9
:101D800000002600000026000100250000002500BC
:101D900000002500000025000000250000002500AF
:101DA00001002400000024000000240000002400A2
:101DB0000000240001002300000023000000230095
:101DC0000000230000002300000023000000230087
:101DD000010022000000220000002200000022007A
:101DE000000022000000220001002100000021006C
:101DF000000021000000210000002100000021005F
:101E00000000210001002000000020000000200050
:101E10000000200000002000000020000000200042
:101E20000000200001001F0000001F0000001F0034
:101E300000001F0000001F0000001F0000001F0026
:101E400001001E0000001E0000001E0000001E0019
:101E500000004D383420582059205A204500436155
:101E60006E6E6F74206F70656E2073756264697238
:101E70002000656E7175657565696E672022006565
:101E800063686F3A002E0A006F70656E20666169A4
:101E90006C65642C2046696C653A20005772697441
:101EA000696E6720746F2066696C653A2000205A5D
:101EB0003A0020593A0020436F756E7420583A005A
:101EC00020453A00205A3A0020593A00583A004337
:101ED00061703A454D455247454E43595F50415216
:101EE0005345523A300A004361703A434153455FCB
:101EF0004C494748545F4252494748544E45535312
:101F00003A300A004361703A544F47474C455F4CA2
:101F100049474854533A300A004361703A534F4698
:101F200054574152455F504F5745523A300A00438B
:101F300061703A4C4556454C494E475F44415441C7
:101F40003A310A004361703A5A5F50524F42453A63
:101F5000310A004361703A4155544F4C4556454C47
:101F60003A310A004361703A5052494E545F4A4F29
:101F7000423A310A004361703A50524F475245533A
:101F8000533A300A004361703A4155544F5245501C
:101F90004F52545F54454D503A310A004361703AF4
:101FA000454550524F4D3A310A004649524D57412E
:101FB00052455F4E414D453A4D61726C696E2056F7
:101FC000657220312E36302E332028437265616CC5
:101FD00069747933442920534F555243455F434F29
:101FE00044455F55524C3A68747470733A2F2F67AA
:101FF00069746875622E636F6D2F4D61726C696EC6
:102000004669726D776172652F4D61726C696E20E1
:1020100050524F544F434F4C5F56455253494F4EC9
:102020003A312E30204D414348494E455F54595076
:10203000453A7777772E6378737733642E636F6DC5
:102040002045585452554445525F434F554E543ADB
:102050003120555549443A63656465326132662DD5
:10206000343161322D343734382D396231322D63B9
:1020700035356336326633363766660A002F2F20D1
:102080000053657474696E672054726176656C20C4
:10209000416363656C65726174696F6E3A200053C9
:1020A000657474696E67205265747261637420414F
:1020B0006363656C65726174696F6E3A2000536585
:1020C0007474696E67205072696E74204163636531
:1020D0006C65726174696F6E3A200053657474693F
:1020E0006E67205072696E7420616E642054726154
:1020F00076656C20416363656C65726174696F6EAF
:102100003A200050726F62696E67206661696C6583
:10211000640A00205A3A200020593A20004265649F
:1021200020583A20004D3834006265640A002C20A3
:1021300073797374656D2073746F7070656421209A
:102140004865617465725F49443A2000486561746E
:10215000696E67206661696C6564004865617469D1
:102160006E67206661696C65640048656174696EBC
:1021700067206661696C65640048656174696E67B3
:10218000206661696C656400544845524D414C209D
:1021900052554E4157415900546865726D616C202B
:1021A00052756E6177617900526573656E643A208D
:1021B000006F6B00D0DAA2D811241FBECFEFD1E29E
:1021C000DEBFCDBF00E00CBF15E0A0E0B2E0E2EC66
:1021D000F5ED01E00BBF02C007900D92A638B107E4
:1021E000D9F72CE1A6E8B5E001C01D92A933B207EA
:1021F000E1F710E1CBEDD0E100E006C02197010945
:10220000802FFE010E941AEACA3DD10780E008072C
:10221000A9F70E944ED00C94D0EA0C9400002F92A3
:102220003F924F925F926F927F928F929F92AF9266
:10223000BF92CF92DF92EF92FF920F931F93CF93B3
:10224000DF93CDB7DEB7E2970FB6F894DEBF0FBECF
:10225000CDBF0E9477CA80919A08823009F07FC072
:1022600080918F14882309F47AC0649978C0809192
:102270009B088F5F80939B0865E070E080E090E0B2
:102280000E949AA880919B0883330CF468C0209028
:10229000FC173090FD174090FE175090FF172092CA
:1022A000B4053092B5054092B6055092B70585E069
:1022B00080939C0810928F140E94F96A80911F06E7
:1022C000909120069093B3058093B20580911D06EE
:1022D00090911E06909398058093970510921E0684
:1022E00010921D060E9440C681E08093E407109280
:1022F0009B0810929A0884E0809315181092131886
:10230000109242181092411825EC622E27E0722E8E
:102310008EE1D3011D928A95E9F7FE0131966F0196
:102320008F0122E043E0C201B1010E94D4DBDF92C1
:10233000CF9282E593E09F938F937F926F920E945A
:10234000A0EA80EB94E09093A90A8093A80A0E94E7
:102350008A540F900F900F900F900F900F900E9443
:102360009E4880919C0881110C94322989ED682E39
:1023700087E1782E9AE1592E8EE993E10E948FA58C
:102380000091990510919A05181619064CF50A3115
:10239000110534F58EE993E10E946DA5F801E7522D
:1023A000F84E80838091D9178A3569F0101611068E
:1023B0001CF7D301E52D1D92EA95E9F710929A05D5
:1023C00010929905D9CF6AE070E080E090E00E9419
:1023D0009AA80F5F1F4F10939A0500939905CCCFD1
:1023E0001016110614F00C94322990913A1780912E
:1023F000D917981321C090913B178091DA17981341
:102400001BC003301105C4F09091DB17909339176E
:102410008091DC1780933C179330D9F4982F9D7FDF
:102420009038B9F49091DD179F3409F05BC090911A
:10243000DE179B3409F056C08AE1E9EDF7E1DF01D0
:102440001D928A95E9F710929A05109299050C94BD
:102450003229833809F046C08091DD1790E0A0E072
:10246000B0E0BA2FA92F982F88272091DE17822B52
:1024700080933D1790933E17A0933F17B09340175A
:102480004090DF17512C612C712C409241175092D3
:102490004217609243177092441780E090E0DC018D
:1024A00084159505A605B70508F04BC09C01275C6F
:1024B000384EAC0155954795440F551FBA016B5BDB
:1024C000784EF901E955FF4F408150E0542F4427E1
:1024D00031962081422BFB01518340830296A11D3E
:1024E000B11DDECF813869F58091DD1790E0A0E065
:1024F000B0E080933D1790933E17A0933F17B093A1
:1025000040178091DE17482F50E060E070E0409364
:102510004117509342176093431770934417E5E4B3
:10252000F7E190E020E030E02817390751F0D901B9
:10253000A152B84E4C9150E0419351932F5F3F4FC1
:10254000F3CF8AE1E9EDF7E1DF011D928A95E9F722
:1025500010929A051092990580919C08181614F40F
:102560000C94252940913D1750913E1760913F17DB
:1025700070914017A6E6B2E0E0E0F0E00D911D9109
:102580002D913D910115110521053105B1F140173E
:1025900051076207730779F5DB01CA018850904142
:1025A000A109B1090597A105B10550F1DB01CA01E7
:1025B000877F82339041A105B10529F1443330E191
:1025C000530761057105F9F0DB01CA01865490419A
:1025D000A109B1090797A105B105C0F0DB01CA0146
:1025E00084559041A109B1090597A105B10580F471
:1025F000E2E1F0E00DC03196C1CFEFEFFFEF08C090
:10260000E3E0F0E005C0E8E0F0E002C0EFE0F0E079
:10261000DB01CA018A509042A109B109833D9105AD
:10262000A105B10510F40C947A26EF3F8FEFF8075F
:1026300011F40C942529EA31F10510F00C942529A8
:102640008827EE58FF4F8F4F0C941AEA8091451758
:102650009091461781309105C9F51092050281E0ED
:10266000809386188FEF80938A180E9477CA809192
:102670009808882349F081E09AE590939617809313
:10268000951782E090E008C081E09AE59093961754
:10269000809395178EE290E0909398178093971708
:1026A00087E08093891782E880938C1784E890E014
:1026B000A0E0B0E080938D1790938E17A0938F17B2
:1026C000B09390170E94AFB80C94252982309105E1
:1026D00009F0D0C081E080930502109213180E9487
:1026E00083BC8BE090E0909396178093951705E05C
:1026F0000093891712E810938C1780E092E1A0E014
:10270000B0E080938D1790938E17A0938F17B0939E
:1027100090170E94AFB810929617109295170093D9
:10272000891710938C178EE090E1A0E0B0E08093C1
:102730008D1790938E17A0938F17B09390170E94C8
:10274000AFB81092961710929517009389171093AF
:102750008C178FE090E1A0E0B0E080938D1790930C
:102760008E17A0938F17B09390170E94AFB8109256
:102770009617109295170093891710938C1786E17E
:1027800090E1A0E0B0E080938D1790938E17A09316
:102790008F17B09390170E94AFB862E070E080E0AE
:1027A00090E00E949AA810929617109295170093A5
:1027B000891710938C1780E190E1A0E0B0E080933E
:1027C0008D1790938E17A0938F17B09390170E9438
:1027D000AFB810929617109295170093891710931F
:1027E0008C1782E190E1A0E0B0E080938D17909388
:1027F0008E17A0938F17B09390170E94AFB81092C6
:10280000801410927F1410928514109286141092E6
:102810008714109288141092891410928A141092BE
:102820008B1410928C1410928114109282141092B6
:1028300083141092841480919808882349F081E0D1
:102840009AE5909396178093951781E090E008C0E1
:1028500081E09AE590939617809395178DE290E02A
:10286000909398178093971787E080938917109318
:102870008C171CCF8330910531F481E080930502E1
:102880001092131818C4049711F00C942529109273
:1028900005020C94252980914517909146178130A7
:1028A0009105D1F41092050280916002882319F0FD
:1028B00082E090E002C083E090E0909396178093CE
:1028C000951785E08093891782E880938C178EE1B5
:1028D00090E1A0E0B0E0EECE8230910509F064C056
:1028E00081E08093050290911518809198089330AB
:1028F000A1F4882349F081E09AE59093961780939C
:1029000095178AE090E0C8CE81E09AE590939617FB
:102910008093951784E390E0BFCE943089F58823A7
:1029200049F081E09AE590939617809395178CE093
:1029300090E0B2CE81E09AE5909396178093951738
:1029400086E390E0A9CE483090E159076105710512
:1029500009F062C19091E40780919808913009F4E0
:10296000F1C09111F7C02091451730914617203FD3
:10297000310509F0EFC090911518933009F4B9CFE3
:10298000882349F081E09AE59093961780939517F4
:102990008BE090E081CE81E09AE59093961780934A
:1029A000951785E390E078CE8330910509F049C012
:1029B00020916002222311F190939617809395172E
:1029C00085E08093891782E880938C178EE190E1EF
:1029D000A0E0B0E080938D1790938E17A0938F178F
:1029E000B09390170E94AFB88FEF90E090931718B4
:1029F00080931618109260020C94252982E090E0D2
:102A0000909396178093951785E08093891782E8B5
:102A100080938C178EE190E1A0E0B0E080938D1759
:102A200090938E17A0938F17B09390170E94AFB812
:102A3000109217181092161881E0809360020C947F
:102A40002529049711F00C94252980910E028823E2
:102A500009F43FC082E090E0909396178093951719
:102A600005E00093891712E810938C178FE190E12D
:102A7000A0E0B0E080938D1790938E17A0938F17EE
:102A8000B09390170E94AFB88091970590919805E8
:102A90000097D1F090931E0680931D069093961791
:102AA000809395170093891710938C178AE390E110
:102AB000A0E0B0E080938D1790938E17A0938F17AE
:102AC000B09390170E94AFB810920E0210920402B9
:102AD00027C083E090E0909396178093951785E048
:102AE0008093891782E880938C178FE190E1A0E0B2
:102AF000B0E080938D1790938E17A0938F17B093AB
:102B000090170E94AFB880911D0690911E06909379
:102B100098058093970581E080930E0280930402CC
:102B200060910E0280E690E00E94ABE60C942529AD
:102B3000809145179091461790930D0280930C0257
:102B40000C9425292091451730914617203F3105D7
:102B500009F4E5CE882349F081E09AE59093961731
:102B60008093951786E590E008C081E09AE5909300
:102B700096178093951787E590E090939817809328
:102B8000971787E08093891782E880938C1784E8F1
:102B900090E0A0E0B0E080938D1790938E17A09303
:102BA0008F17B09390170E94AFB81092961710929B
:102BB000951705E00093891712E810938C1780E1B0
:102BC00090E1A0E0B0E080938D1790938E17A093D2
:102BD0008F17B09390170E94AFB81092961710926B
:102BE00095170093891710938C1782E190E1A0E06C
:102BF000B0E080938D1790938E17A0938F17B093AA
:102C000090170E94AFB8109242181092411810927B
:102C100087180E9464C0ABC14A30A0E15A07610521
:102C2000710509F097C08091451790914617813F33
:102C3000910511F00C94252980919808882349F07A
:102C400081E09AE5909396178093951786E590E03A
:102C500008C081E09AE5909396178093951787E5D1
:102C600090E0909398178093971787E08093891747
:102C700082E880938C1784E890E0A0E0B0E0809335
:102C80008D1790938E17A0938F17B09390170E9473
:102C9000AFB811E010939C0810928F140E94F96A4B
:102CA00080911F06909120069093B3058093B20502
:102CB00080911D0690911E0690939805809397052C
:102CC00010921E0610921D060E9440C61093E40743
:102CD00084E0809315181092421810924118609168
:102CE000FC177091FD178091FE179091FF1760936C
:102CF000B4057093B5058093B6059093B70525ECA0
:102D0000E22E27E0F22E2EE1F70111922A95E9F743
:102D10009E012F5F3F4F5901890122E043E00E944D
:102D2000D4DBBF92AF9282E593E09F938F93FF92A3
:102D3000EF920E94A0EA8FE994E09093A90A809311
:102D4000A80A0E948A540F900F900F900F900F9036
:102D50000F900DC14C3050416105710509F007C15C
:102D60008091451790914617019709F000C180E0C6
:102D700090E00E94D569892BB1F1109296051092CE
:102D8000950515E0F12E02E8E02E8EE8882E80E110
:102D9000982EA12CB12C0091950510919605053027
:102DA000110514F00C94252910939617009395178C
:102DB000F0928917E0928C1780928D1790928E175F
:102DC000A0928F17B09290170E94AFB860E971E09F
:102DD00080E090E00E949AA80F5F1F4F1093960525
:102DE00000939505D8CF80919808882349F081E019
:102DF0009AE5909396178093951786E590E008C022
:102E000081E09AE5909396178093951787E590E077
:102E1000909398178093971787E08093891782E89B
:102E200080938C1784E890E0A0E0B0E080938D1749
:102E300090938E17A0938F17B09390170E94AFB8FE
:102E400005EC17E0BEE1FB2ED801EF2D1D92EA95AF
:102E5000E9F7809198058F93809197058F9386E984
:102E600094E09F938F931F930F930E9459E0C801A2
:102E70000E944CBAD8011D92FA94E9F78091B305EB
:102E80008F938091B2058F938DE894E09F938F93F9
:102E90001F930F930E9459E0C8010E944CBA0FB6CD
:102EA000F894DEBF0FBECDBF80919014882319F037
:102EB00081E080938F140E94336A80919808882360
:102EC00019F081E090E002C08DE090E090939617B9
:102ED0008093951785E08093891782E880938C17FB
:102EE00084E190E1A0E0B0E080938D1790938E177D
:102EF000A0938F17B09390170E94AFB81092E40779
:102F0000109242181092411883E08093151881E0C6
:102F10008093871880919808882349F081E09AE58A
:102F200090939617809395178AE090E008C081E00F
:102F30009AE5909396178093951784E390E0909389
:102F400098178093971787E08093891782E880937A
:102F50008C1784E890E0A0E0B0E080938D17909308
:102F60008E17A0938F17B09390170E94AFB88091DF
:102F70003D1790913E17A0913F17B09140178C30AC
:102F80009041A105B10511F00C94252980914517B8
:102F900090914617029711F00C94252981E08093B7
:102FA00094058091B2059091B3059093200680938B
:102FB0001F06109296051092950580919808882317
:102FC00069F081E09AE5909396178093951787E0D2
:102FD00090E0909398178093971763CB81E09AE5E0
:102FE000909396178093951782E590E055CB2091AA
:102FF000451730914617B90180E090E037FF09C0CE
:103000000E948CE020E030E040E857E40E9425E791
:1030100002C00E948CE020E030E048EC52E40E94C4
:1030200002E8609308067093090680930A0690935D
:103030000B060C942529809145179091461700970F
:1030400039F481E080930502109213180C9425291D
:103050009C01215031092230310510F40C942529AE
:103060008330910509F053C09091600280919808D7
:10307000992391F12FEF30E0309317182093161811
:10308000109260028823F9F081E09AE590939617F8
:10309000809395178FE090E0FFCA423320E15207FA
:1030A0006105710509F06CC1809145179091461733
:1030B000009709F038C190919808809160029111B1
:1030C0002FC181111BC081E09AE5909396178093E0
:1030D000951789E390E0E0CA10921718109216181D
:1030E00091E090936002882349F081E09AE5909303
:1030F00096178093951780E190E0CECA81E09AE51B
:1031000090939617809395178AE390E0C5CA85300F
:103110009105C9F480E090E0A3E4B3E48093000259
:1031200090930102A0930202B093030203EC10E01B
:103130001093200600931F0680E00E948BC6ADE22C
:10314000EA2EF12C1CC08630910509F03FC080E0CA
:1031500090E0A0E7B3E48093000290930102A09373
:103160000202B093030200EF10E0109320060093D8
:103170001F0680E00E948BC6FEE6EF2EF12CF09237
:103180001E06E0921D060E9440C6109396170093FB
:10319000951705E00093891712E810938C1784E3C4
:1031A00090E1A0E0B0E080938D1790938E17A093EC
:1031B0008F17B09390170E94AFB8F0929617E092D5
:1031C00095170093891710938C17D5C0813F9105EF
:1031D00011F00C9425298FEF90E0909317188093AD
:1031E0001618109260020E9440AB1092961710922F
:1031F000951705E00093891712E810938C1784E364
:1032000090E1A0E0B0E080938D1790938E17A0938B
:103210008F17B09390170E94AFB861E070E080E024
:1032200090E00E949AA8109296171092951700931A
:10323000891710938C178AE390E1A0E0B0E08093A7
:103240008D1790938E17A0938F17B09390170E94AD
:10325000AFB861E070E080E090E00E949AA88091B1
:103260009808882309F188E090E09093961780935E
:1032700095170093891710938C1784E190E1A0E0D3
:10328000B0E080938D1790938E17A0938F17B09313
:1032900090170E94AFB881E09AE5909396178093BB
:1032A00095178FE090E020C084E190E0909396170E
:1032B000809395170093891710938C1784E190E100
:1032C000A0E0B0E080938D1790938E17A0938F1796
:1032D000B09390170E94AFB881E09AE5909396174B
:1032E0008093951789E390E09093981780939717B0
:1032F00087E08093891710938C1784E890E0A0E012
:10330000B0E080938D1790938E17A0938F17B09392
:1033100090170E94AFB882E0809315180C9425296D
:103320008111E3CEB1CE8130910599F4109220063F
:1033300010921F06109296171092951785E08093B1
:10334000891782E880938C1784E390E1A0E0B0E0D5
:10335000B1C9029711F00C94252910921E06109203
:103360001D06109296171092951785E08093891785
:1033700082E880938C178AE390E1A0E0B0E09AC9DC
:10338000443330E153076105710551F480914517CD
:10339000909146179093200680931F060C94252940
:1033A0004A3350416105710511F00C942529809133
:1033B00045179091461790931E0680931D060C9416
:1033C00025298091451790914617009709F439CE29
:1033D0008130910509F073C080911302882319F0A0
:1033E00082E090E002C083E090E090939617809393
:1033F000951785E08093891782E880938C1785E480
:1034000090E1A0E0B0E080938D1790938E17A09389
:103410008F17B09390170E94AFB80E949B8A80913B
:1034200013028093B00581E0809313028093B1056D
:103430008AE090E0909396178093951785E08093AB
:10344000891782E880938C1780E092E1A0E0B0E0D9
:1034500080938D1790938E17A0938F17B09390172A
:103460000E94AFB812E010939C080E946DCA89E8D0
:1034700094E09093A90A8093A80A0E948A5410931A
:103480009C088CE794E09093A90A8093A80A0E9474
:103490008A5480919808882349F081E09AE59093B6
:1034A00096178093951786E190E0F6C881E09AE53B
:1034B000909396178093951780E490E0EDC8823042
:1034C000910509F0B6C081E08093050210921318AF
:1034D00088E0EAE8F5E0DF011D928A95E9F780E0EF
:1034E00090E0A0E2B1E480938A0590938B05A093CD
:1034F0008C05B0938D0580938E0590938F05A093D6
:103500009005B093910584E690E090939617809390
:10351000951705E00093891712E810938C1784E53E
:1035200090E1A0E0B0E080938D1790938E17A09368
:103530008F17B09390170E94AFB820E030E040E2C0
:1035400051E460918E0570918F0580919005909166
:1035500091050E94EDE00E946AE8709396176093CF
:1035600095170093891710938C1788E590E1A0E0D8
:10357000B0E080938D1790938E17A0938F17B09320
:1035800090170E94AFB86091F6057091F705809191
:10359000F8059091F9050E946AE870939617609378
:1035A00095170093891710938C1786E390E1A0E09C
:1035B000B0E080938D1790938E17A0938F17B093E0
:1035C00090170E94AFB880911F06909120069093AB
:1035D0009617809395170093891710938C1784E39F
:1035E00090E1A0E0B0E080938D1790938E17A093A8
:1035F0008F17B09390170E94AFB862E070E080E040
:1036000090E00E949AA880919808882349F081E070
:103610009AE5909396178093951787E190E020C9DB
:1036200081E09AE5909396178093951781E490E056
:1036300017C98330910509F092C01092D60520E099
:1036400030E040E251E46091F4177091F5178091F9
:10365000F6179091F7170E94EDE00E946AE87093C8
:1036600096176093951705E00093891712E8109359
:103670008C1788E490E1A0E0B0E080938D179093E0
:103680008E17A0938F17B09390170E94AFB820E0C9
:1036900030E040E251E46091F8177091F9178091A1
:1036A000FA179091FB170E94EDE00E946AE8709370
:1036B0009617609395170093891710938C178AE4D7
:1036C00090E1A0E0B0E080938D1790938E17A093C7
:1036D0008F17B09390170E94AFB820E030E040E21F
:1036E00051E46091FC177091FD178091FE17909145
:1036F000FF170E94EDE00E946AE8709396176093AE
:1037000095170093891710938C178CE490E1A0E033
:10371000B0E080938D1790938E17A0938F17B0937E
:1037200090170E94AFB862E070E080E090E00E94E5
:103730009AA880919808882349F081E09AE59093AF
:103740009617809395178DE190E08AC881E09AE5FD
:10375000909396178093951787E490E081C8843002
:10376000910511F40C9425298530910589F48091F7
:1037700098084EE750E160E070E0882319F082E697
:1037800093E002C085E793E00E948D690C9425299F
:10379000069711F00C94252988E794E09093A90AE4
:1037A0008093A80A0E948A548BE090E06AC28091BC
:1037B000451790914617019709F041C080EA9FE0B4
:1037C00090934218809341188091B105882351F05D
:1037D000109205021092B1058091B00580931302FA
:1037E0000E94159C80919808882349F081E09AE511
:1037F000909396178093951785E190E008C081E03B
:103800009AE590939617809395178FE390E09093A5
:1038100098178093971787E08093891782E88093A1
:103820008C1784E890E0A0E0B0E080938D1790932F
:103830008E17A0938F17B09390170E94AFB8809106
:10384000451790914617029711F00C94252921CE27
:10385000809145179091461781309105A1F50E94FE
:103860006DCA8091EF05882321F08091F0058111C8
:1038700003C084E794E002C08DE694E09093A90A27
:103880008093A80A0E948A548FE594E09093A90A35
:103890008093A80A0E948A54109208061092090682
:1038A00010920A0610920B06109296171092951716
:1038B00085E08093891782E880938C1786E290E1F7
:1038C000A0E0B0E049C28230910579F42DEC3CECE7
:1038D0004CEC5DE36091FC177091FD178091FE1731
:1038E0009091FF170E9426E711C083309105D9F40B
:1038F0002DEC3CEC4CEC5DE36091FC177091FD17F6
:103900008091FE179091FF170E9425E76093FC17A6
:103910007093FD178093FE179093FF1782E090E05D
:103920000E941B48ACC184309105A1F584E08093CE
:103930009C0882E594E09093A90A8093A80A0E94CB
:103940008A548EE494E09093A90A8093A80A0E9476
:103950008A5482E080939C0881E494E09093A90AC1
:103960008093A80A0E948A5480919808882349F07D
:1039700081E09AE590939617809395178CE190E0FB
:10398000DDC181E09AE5909396178093951784E5C1
:1039900090E0D4C18530910509F064C083E0809344
:1039A0009C0881E090E0909396178093951785E0AE
:1039B0008093891712E810938C178DE890E1A0E0AE
:1039C000B0E080938D1790938E17A0938F17B093CC
:1039D00090170E94AFB880919808882349F081E041
:1039E0009AE590939617809395178BE290E008C024
:1039F00081E09AE5909396178093951785E590E07E
:103A0000909398178093971787E080938917109366
:103A10008C1784E890E0A0E0B0E080938D1790933D
:103A20008E17A0938F17B09390170E94AFB88DE3B5
:103A300094E09093A90A8093A80A0E948A548EE287
:103A400094E09093A90A8093A80A0E948A548BE17B
:103A500094E09093A90A8093A80A0E948A548EE069
:103A600094E08BC086309105C9F484E080939C0873
:103A700082E094E09093A90A8093A80A0E948A5455
:103A80008FEE93E09093A90A8093A80A0E948A542B
:103A900082E080939C0883EE93E06FC087309105AD
:103AA000C9F484E080939C0887ED93E09093A90A81
:103AB0008093A80A0E948A5486EC93E09093A90A06
:103AC0008093A80A0E948A5482E080939C088AEB23
:103AD00093E053C088309105C9F484E080939C083A
:103AE0008EEA93E09093A90A8093A80A0E948A54D0
:103AF0008CE993E09093A90A8093A80A0E948A54C3
:103B000082E080939C0880E993E037C0893091057A
:103B1000C9F484E080939C0884E893E09093A90A18
:103B20008093A80A0E948A5481E793E09093A90A9F
:103B30008093A80A0E948A5482E080939C0885E6BC
:103B400093E01BC08A309105F9F484E080939C08CF
:103B500089E593E09093A90A8093A80A0E948A5469
:103B600087E493E09093A90A8093A80A0E948A545C
:103B700082E080939C088BE393E09093A90A809362
:103B8000A80A0E948A547BC00B9709F078C08091E4
:103B9000B0058823F9F083E090E090939617809326
:103BA000951785E08093891782E880938C1785E4C8
:103BB00090E1A0E0B0E080938D1790938E17A093D2
:103BC0008F17B09390170E94AFB81092B0050E9463
:103BD000159C1FC082E090E09093961780939517F4
:103BE00085E08093891782E880938C1785E490E1C3
:103BF000A0E0B0E080938D1790938E17A0938F175D
:103C0000B09390170E94AFB881E08093B0050E94F6
:103C10009B8A609108067091090680910A0690912E
:103C20000B06609304067093050680930606909336
:103C3000070620E030E048EC52E40E94EDE00E94EC
:103C40006AE8709396176093951785E080938917BB
:103C500082E880938C1786E290E1A0E0B0E0809348
:103C60008D1790938E17A0938F17B09390170E9483
:103C7000AFB86091B0058CE590E00E94ABE68AE0B9
:103C800090E0909396178093951785E0809389171D
:103C900082E880938C1780E092E1A0E0B0E00C9481
:103CA0005A1384E080939C088091451790914617A1
:103CB0004834B0E15B076105710509F464C04A341A
:103CC000E0E15E076105710509F466C04C34F0E17E
:103CD0005F076105710509F469C04634504161050B
:103CE000710509F06CC08330910509F049C087E384
:103CF00093E09093A90A8093A80A0E948A5489E2CB
:103D000093E09093A90A8093A80A0E948A5481E0C4
:103D10008093D7058093050210928905109242186E
:103D20001092411880919808882309F181E09AE562
:103D3000909396178093951780E290E09093981750
:103D40008093971787E08093891782E880938C1778
:103D500084E890E0A0E0B0E080938D1790938E17F8
:103D6000A0938F17B09390170E94AFB888CF81E0CF
:103D70009AE590939617809395178AE490E0DECFAA
:103D80008093D605F2C0812C912CE6E9AE2EE3E4B7
:103D9000BE2EE12CF12C13C0812C912C66E9A62EAD
:103DA00063E4B62EEE24E394F12C09C0812C912C0F
:103DB00048ECA42E43E4B42E52E0E52EF12CBC01D5
:103DC00080E090E00E948CE020E030E040E251E4AE
:103DD0000E9402E82B013C0120E030E0A9010E9492
:103DE00088E08701000F111F000F111F87FF08C017
:103DF000F801EC50F84E108211821282138214C026
:103E0000A5019401C301B2010E944CE9F801EC50F4
:103E1000F84E18162CF0408251826282738204C0E0
:103E200080829182A282B38232E0E316F10409F02B
:103E300079C082E090E00E941B4820E030E040E240
:103E400051E46091F4177091F5178091F6179091F5
:103E5000F7170E94EDE00E946AE87093961760934E
:103E6000951705E00093891712E810938C1788E4E2
:103E700090E1A0E0B0E080938D1790938E17A0930F
:103E80008F17B09390170E94AFB820E030E040E267
:103E900051E46091F8177091F9178091FA17909199
:103EA000FB170E94EDE00E946AE8709396176093FA
:103EB00095170093891710938C178AE490E1A0E07E
:103EC000B0E080938D1790938E17A0938F17B093C7
:103ED00090170E94AFB820E030E040E251E46091DA
:103EE000FC177091FD178091FE179091FF170E94AB
:103EF000EDE00E946AE8709396176093951700931F
:103F0000891710938C178CE490E1A0E0B0E08093C7
:103F10008D1790938E17A0938F17B09390170E94D0
:103F2000AFB803C0C7010E941B4861E070E080E0A9
:103F300090E00E949AA88AE090E090939617809370
:103F4000951785E08093891782E880938C1780E02D
:103F500092E1A0E0B0E080938D1790938E17A0932C
:103F60008F17B09390170E94AFB810929C080C94D2
:103F7000252983E090E00E94D569892B11F00C94EB
:103F8000252980913D1790913E17A0913F17B09140
:103F900040178635E0E19E07A105B10509F04FC243
:103FA000809145179091461781309105C9F4809111
:103FB0002106809388051092210620918A05309170
:103FC0008B0540918C0550918D0560910018709182
:103FD000011880910218909103180E9425E71CC0D7
:103FE0008230910509F0D8C0809121068093880520
:103FF0001092210620918A0530918B0540918C0505
:1040000050918D05609100187091011880910218EF
:10401000909103180E9426E760930018709301188E
:10402000809302189093031880919305882309F4D4
:1040300058C083E090E00E941B4820E030E040E25E
:1040400051E460918A0570918B0580918C05909167
:104050008D050E94EDE00E946AE8709396176093C8
:10406000951705E00093891712E810938C1784E5E3
:1040700090E1A0E0B0E080938D1790938E17A0930D
:104080008F17B09390170E94AFB820E030E040E265
:1040900051E460918E0570918F058091900590910B
:1040A00091050E94EDE00E946AE870939617609374
:1040B00095170093891710938C1788E590E1A0E07D
:1040C000B0E080938D1790938E17A0938F17B093C5
:1040D00090170E94AFB880918805809321060C94B8
:1040E00025298090000290900102A0900202B090D9
:1040F000030220E030E040EA50E4C501B4010E9430
:1041000025E79B01AC016091F6057091F705809160
:10411000F8059091F9050E9488E087FF8ACF81E039
:1041200080939305C501B4010E946AE870939617C5
:104130006093951785E08093891782E880938C17A8
:1041400080E290E1A0E0B0E080938D1790938E170D
:10415000A0938F17B09390170E94AFB865E070E0FE
:1041600080E090E00E949AA880919808882351F0FE
:1041700081E09AE5909396178093951788E190E0F7
:104180000C944C1381E09AE59093961780939517C1
:1041900082E490E00C944C1383309105D1F480912B
:1041A00021068093880511E01093210620918E0549
:1041B00030918F05409190055091910560910018C4
:1041C0007091011880910218909103180E9425E7C0
:1041D0001DC08430910509F046C08091210680936E
:1041E000880511E01093210620918E0530918F05EE
:1041F00040919005509191056091001870910118BF
:1042000080910218909103180E9426E7609300188D
:10421000709301188093021890930318809193056E
:10422000811107CF8090000290900102A0900202BD
:10423000B090030220E030E040EA50E4C501B40150
:104240000E9425E79B01AC016091F6057091F7058E
:104250008091F8059091F9050E9488E087FFE9CEEA
:10426000109393055FCF8530910509F0B8C081E0C8
:104270008093920500911F06109120068090000205
:1042800090900102A0900202B0900302B801012EAA
:10429000000C880B990B0E948EE0A50194010E94EE
:1042A0004CE987FF05C0C501B4010E946AE88B0193
:1042B0001093200600931F0620E030E048EC52E403
:1042C0006091F6057091F7058091F8059091F905D8
:1042D0000E94EDE04B015C01B801110F880B990BB6
:1042E0000E948EE09B01AC01C501B4010E9402E86E
:1042F0000E946FE86436710510F064E670E0709318
:1043000096176093951705E00093891712E81093AC
:104310008C1784E290E1A0E0B0E080938D17909339
:104320008E17A0938F17B09390170E94AFB860912B
:10433000F6057091F7058091F8059091F9050E94B6
:104340006AE87093961760939517009389171093F6
:104350008C1786E390E1A0E0B0E080938D179093F6
:104360008E17A0938F17B09390170E94AFB88091CB
:104370001F069091200690939617809395170093AF
:10438000891710938C1784E390E1A0E0B0E080934C
:104390008D1790938E17A0938F17B09390170E944C
:1043A000AFB865E070E080E090E00E949AA880914C
:1043B0009808882351F081E09AE5909396178093AE
:1043C00095178AE190E00C94301481E09AE590937F
:1043D00096178093951784E490E00C9430148630FF
:1043E0009105D1F41092930580919808882351F09B
:1043F00081E09AE5909396178093951787E190E076
:104400000C944C1381E09AE590939617809395173E
:1044100081E490E00C944C13813F910559F4109283
:1044200093051092920561E070E080E090E00E94B8
:104430009AA8DACF803F910509F0FBCD06C78435F5
:10444000F0E19F07A105B105B9F46091451770919E
:10445000461780E090E00E948CE020E030E040E2EF
:1044600051E40E9402E860938A0570938B05809363
:104470008C0590938D05E9C688359041A105B1055D
:1044800009F0E3C6609145177091461780E090E00F
:104490000E948CE020E030E040E251E40E9402E81B
:1044A00060938E0570938F0580939005909391058E
:1044B000CCC660914517609398088AE590E00E9409
:1044C000ABE69091901480919808992351F088233D
:1044D00029F010929617109295170EC08CE090E07C
:1044E00007C0882319F086E090E002C082E190E0E6
:1044F000909396178093951785E08093891782E8AB
:1045000080938C1784E190E1A0E0B0E00C945A1302
:1045100080914517909146178130910509F0A2C10D
:1045200080E090E00E94D569892B09F08EC68091C9
:104530009908813009F0F0C08CE995E00E944CBAEE
:1045400085E293E09093A90A8093A80A0E948A5476
:10455000812C20E2922EA12CB12C05E012E81092C1
:104560009617109295170093891710938C178092C5
:104570008D1790928E17A0928F17B09290170E946D
:10458000AFB83FEF831A930AA30AB30A8AE08816EA
:1045900080E29806A104B10411F700919B0592E115
:1045A0000902800111240352174EF80101900020E6
:1045B000E9F7A8014E1B5F0B4D5E5F4F57FF02C02E
:1045C0004F5F5F4F7A01F594E7941E141F04D4F4F3
:1045D000DE0111965D0184E1FD0111928A95E9F7F2
:1045E000A70167E873E0CD010E9491EAB801C50117
:1045F0008E0D9F1D0E947CEA40E050E260E070E07A
:10460000C50105C040E050E260E070E0C8010E94D2
:104610008D6962E070E080E090E00E949AA880914D
:104620009808882349F181E090E090939617809351
:10463000951785E08093891712E810938C1784E111
:1046400090E1A0E0B0E080938D1790938E17A09337
:104650008F17B09390170E94AFB862E070E080E0CF
:1046600090E00E949AA881E09AE590939617809333
:1046700095178AE090E028C08DE090E0909396171F
:104680008093951785E08093891712E810938C1713
:1046900084E190E1A0E0B0E080938D1790938E17B5
:1046A000A0938F17B09390170E94AFB862E070E0AC
:1046B00080E090E00E949AA881E09AE59093961796
:1046C0008093951784E390E09093981780939717C1
:1046D00087E08093891710938C1784E890E0A0E01E
:1046E000B0E080938D1790938E17A0938F17B0939F
:1046F00090170E94AFB881E0809305028093131851
:104700008093141893E09093151880938718109253
:10471000E40710929B0524C1823009F09FC07E01FE
:10472000FFE1EF0EF11C80E1D7011D928A95E9F7B8
:104730006091B4057091B5058091B6059091B7056B
:10474000870122E043E00E94D4DB809198058F939B
:10475000809197058F938CE193E09F938F930E51F7
:1047600011091F930F930E9459E0C8010E944CBA8F
:104770008EE1B82EF8012B2D11922A95E9F7809140
:10478000B3058F938091B2058F9383E193E09F935C
:104790008F931F930F930E9459E0C8010E944CBA57
:1047A000D8011D92BA94E9F7FF92EF928CE093E062
:1047B0009F938F931F930F930E9459E0C8010E940B
:1047C0004CBA0FB6F894DEBF0FBECDBF80919014E7
:1047D000882319F081E080938F140E94336A8091BE
:1047E0009808882319F081E090E002C08DE090E005
:1047F000909396178093951785E08093891782E8A8
:1048000080938C1784E190E1A0E0B0E080938D1755
:1048100090938E17A0938F17B09390170E94AFB804
:104820001092E40783E08093151881E08093871845
:1048300080919808882349F081E09AE59093961733
:10484000809395178AE090E073C081E09AE5909399
:1048500096178093951784E390E06AC0833009F03F
:10486000F4C4C2CD892B09F0F0C48091990881303D
:1048700081F580919808882349F081E09AE590932A
:1048800096178093951782E090E008C081E09AE542
:1048900090939617809395178EE290E090939817D7
:1048A0008093971787E08093891782E880938C170D
:1048B00084E890E0A0E0B0E080938D1790938E178D
:1048C000A0938F17B09390170E94AFB8109214184E
:1048D00047C08230B1F480919808882349F081E084
:1048E0009AE590939617809395178CE090E020C0FE
:1048F00081E09AE5909396178093951786E390E070
:1049000017C0833069F580919808882349F081E0C9
:104910009AE5909396178093951787E190E008C0E9
:1049200081E09AE5909396178093951781E490E043
:10493000909398178093971787E08093891782E860
:1049400080938C1784E890E0A0E0B0E080938D170E
:1049500090938E17A0938F17B09390170E94AFB8C3
:104960001092990872C4E0904517F0904617F1E054
:10497000EF16F10409F0B9C0809118189091191838
:10498000181619060CF061C480916F118F938091F5
:104990006E118F9383E093E09F938F938E010F5F4F
:1049A0001F4F1F930F930E9459E0C8010E944CBAF9
:1049B000809167118F93809166118F938AEF92E0B7
:1049C0009F938F931F930F930E9459E0C8010E94F9
:1049D0004CBA80EF92E09093A90A8093A80A0E94B3
:1049E0008A54809171118F93809170118F938CEE06
:1049F00092E09F938F931F930F930E9459E0C801F9
:104A00000E944CBAF0928705E09286058FEF90E005
:104A10009093171880931618109260021092E40772
:104A200081E08093141893E0909315188093DC052F
:104A30008093050280931318809387181092421870
:104A4000109241181092DB051092DA050FB6F89417
:104A5000DEBF0FBECDBF80919808882311F1F09280
:104A60009617E092951785E08093891712E81093C6
:104A70008C1784E190E1A0E0B0E080938D179093D3
:104A80008E17A0938F17B09390170E94AFB881E054
:104A90009AE590939617809395178AE090E00C948E
:104AA00030148DE090E0909396178093951785E0F1
:104AB0008093891712E810938C1784E190E1A0E0AD
:104AC000B0E080938D1790938E17A0938F17B093BB
:104AD00090170E94AFB881E09AE590939617809363
:104AE000951784E390E00C94301432E0E316F1045F
:104AF00009F0ABC381E0809305021092131880EA9D
:104B00009FE09093421880934118809198088823E1
:104B100049F081E09AE5909396178093951781E08C
:104B200090E008C081E09AE59093961780939517DE
:104B30008DE290E0909398178093971787E0809389
:104B4000891782E880938C1784E890E0A0E0B0E0B9
:104B500080938D1790938E17A0938F17B093901713
:104B60000E94AFB80E94F7648091121880931118C8
:104B7000109210180E9483BC0E9440AB6AE58DE839
:104B800093E10E94E4B910924D1110929D130E947E
:104B90003DBA019669F401E913E0F80181918F01B2
:104BA000882319F00E94D2CEF8CF8AE00E94D2CE9C
:104BB00089E796E10E942E60109219181092181839
:104BC00010925F021092141864EF71E080E090E0A0
:104BD0000E949AA83AC380914517909146178F3F3B
:104BE000910531F028F08FEF90E0A0E0B0E002C036
:104BF000A0E0B0E080930F0290931002A093110206
:104C0000B093120280910F0290911002A0911102B4
:104C1000B09112020097A105B10519F510929617EF
:104C20001092951705E00093891712E810938C17DE
:104C30008AE890E1A0E0B0E080938D1790938E1702
:104C4000A0938F17B09390170E94AFB889E090E0BF
:104C500090939617809395170093891710938C174C
:104C600022C00196A11DB11D15E0B695A795979597
:104C700087951A95D1F7BC01CD0161507109810961
:104C800091092AE830E140E050E00E94696988E03B
:104C900090E0909396178093951785E080938917FD
:104CA00082E880938C178CE890E1A0E0B0E08093DC
:104CB0008D1790938E17A0938F17B09390170E9423
:104CC000AFB860910F028EE590E00E94ABE6809154
:104CD0000F0290911002A0911102B091120266276A
:104CE000782F892F9A2F21EA30E040E050E00E948F
:104CF0006969ABC220919014222309F44BC1433D52
:104D0000F0E25F076105710509F044C18091451724
:104D10009091461720918B1830918C1828173907DD
:104D200008F493C2815080938A18E4ED8E2EE0E25D
:104D30009E2EA12CB12C05E012E81092961710922D
:104D400095170093891710938C1780928D17909266
:104D50008E17A0928F17B09290170E94AFB82FEFC6
:104D6000821A920AA20AB20A3EED831630E2930634
:104D7000A104B10411F700918A1882E108028001B0
:104D800011240352174EF80101900020E9F7A80101
:104D90004E1B5F0B4D5E5F4F57FF02C04F5F5F4F73
:104DA0007A01F594E7941E141F04F4F4DE011196C1
:104DB0003D0184E1FD0111928A95E9F7A70167E8B9
:104DC00073E0CD010E9491EAB801C3018E0D9F1DD1
:104DD0000E947CEA44ED50E260E070E0C3010E9472
:104DE0008D6905E012E806C044ED50E260E070E035
:104DF000C801F5CF10929617109295170093891756
:104E000010938C1780928D1790928E17A0928F1707
:104E1000B09290170E94AFB8FFEF8F1A9F0AAF0AA7
:104E2000BF0A26EE821620E29206A104B10411F711
:104E30008E010F5F1F4F84E1D8011D928A95E9F71B
:104E400080918C188F9380918B188F938091461747
:104E50008F93809145178F9386EB93E09F938F9369
:104E60001F930F930E94A0EA4EED50E260E070E0C5
:104E7000C8010E948D6962E070E080E090E00E94CD
:104E80009AA80FB6F894DEBF0FBECDBF31E2832ED5
:104E900032E1932EA12CB12C43E1242E40E6342E96
:104EA000412C512C66246A94762C15E002E86AE0C5
:104EB000E62EF12C20918B1830918C18C401805271
:104EC0009241281739077CF17092961760929517D6
:104ED0001093891700938C1720928D1730928E179C
:104EE00040928F17509290170E94AFB8F092961789
:104EF000E09295171093891700938C1780928D1765
:104F000090928E17A0928F17B09290170E94AFB810
:104F1000F0E12F0E311C411C511C2FEF821A920A16
:104F2000A20AB20AC7CF809145179091461724E094
:104F3000880F991F2A95E1F78D5F9F49A0E0B0E0A7
:104F400020EF37E8309396172093951705E00093EC
:104F5000891712E810938C1780938D1790938E17F2
:104F6000A0938F17B09390170E94AFB88091451708
:104F700090914617805E9D4EA0E0B0E026E030E0C4
:104F800030939617209395170093891710938C17D9
:104F90000C945A13423D50426105710509F055C108
:104FA00080914517909146178130910509F049C1CC
:104FB000222309F44AC180918A1887FD46C1A2E1E3
:104FC0008A02C00111248B5B954E9F938F9385EECF
:104FD00092E09F938F938E010F5F1F4F1F930F934C
:104FE0000E9459E00F900F900F900F900F900F902C
:104FF0007E01B5E0EB0EF11CD7018C91882349F0BE
:10500000082E000C990B0E942CEAF70181937F0176
:10501000F3CF80918A1880939B0584E1ECE9F5E059
:10502000DF011D928A95E9F7B801CF010E947CEA61
:1050300081E090E00E94D569892B09F006C1C80182
:105040000E944CBA81EE92E09093A90A8093A80A3C
:105050000E948A54812C90E2992EA12CB12C05E05B
:1050600012E81092961710929517009389171093D3
:105070008C1780928D1790928E17A0928F17B092F6
:1050800090170E94AFB8BFEF8B1A9B0AAB0ABB0AFE
:10509000EAE08E16E0E29E06A104B10411F7009149
:1050A0008A18F2E10F02800111240352174EF80111
:1050B00001900020E9F7A8014E1B5F0B4D5E5F4F8A
:1050C00057FF02C04F5F5F4F7A01F594E7941E14BB
:1050D0001F04DCF45E012FE1A20EB11C84E1D501B6
:1050E0001D928A95E9F7A70167E873E0C5010E9460
:1050F00091EAB801C5018E0D9F1D0E947CEA40E037
:1051000050E260E070E0C50105C040E050E260E0C0
:1051100070E0C8010E948D6962E070E080E090E07C
:105120000E949AA88FEF90E090931718809316181A
:105130001092600280919808882349F181E090E004
:10514000909396178093951785E08093891712E8BE
:1051500010938C1784E190E1A0E0B0E080938D176C
:1051600090938E17A0938F17B09390170E94AFB8AB
:1051700062E070E080E090E00E949AA881E09AE509
:1051800090939617809395178AE090E028C08DE061
:1051900090E0909396178093951785E080938917F8
:1051A00012E810938C1784E190E1A0E0B0E08093C6
:1051B0008D1790938E17A0938F17B09390170E941E
:1051C000AFB862E070E080E090E00E949AA881E0D1
:1051D0009AE5909396178093951784E390E09093C7
:1051E00098178093971787E08093891710938C17EF
:1051F00084E890E0A0E0B0E080938D1790938E1744
:10520000A0938F17B09390170E94AFB881E080935E
:10521000050280931318809304021092E407809390
:10522000141893E0909315188093871881E090E00C
:105230009093DB058093DA05109242181092411882
:1052400004C0892B11F40C94211880E5E9E3F7E1FF
:10525000DF011D928A95E9F78AE580933A1785EA7E
:1052600080933B17E2960FB6F894DEBF0FBECDBF1A
:10527000DF91CF911F910F91FF90EF90DF90CF9032
:10528000BF90AF909F908F907F906F905F904F9066
:105290003F902F9008952F923F924F925F926F927E
:1052A0007F928F929F92AF92BF92CF92DF92EF92B6
:1052B000FF920F931F93CF93DF93CDB7DEB7CF58F5
:1052C000D1090FB6F894DEBF0FBECDBF0091111803
:1052D00020E6029F80011124025C194F8091EE0BA1
:1052E00080FF1AC0EFE7FEE184917F013FEFE31AF0
:1052F000F30A811102C0780104C00E94D2CEF701E6
:10530000F3CFD7018D917D01882319F00E94D2CE71
:10531000F8CF8AE00E94D2CE81E090E09093B30A69
:105320008093B20A1092D9051092D8058FE380932A
:10533000E7051092E6051092E5051092D20510924D
:10534000D3051092D4051092D505F80180810F5F26
:105350001F4F8032D1F38E34B1F4818190ED980FDC
:105360009A3020F08D3211F08B3269F43296DF01E1
:1053700031962C9120532A30D0F3CD01FC010196B7
:1053800020812032D9F3F093BA0AE093B90A7F0161
:10539000BFEFEB1AFB0A10816AE270E0C7010E94BE
:1053A00068EA009731F0FC01319780818032E1F3A7
:1053B00011821D3429F0143519F0173409F0CBC0CF
:1053C000F70180812FEFE21AF20A8032C9F380538D
:1053D0008A3008F0C0C01093E7052091E5053091B0
:1053E000E6054AE03196429FC001439F900D11248B
:1053F000DF0111972C91022E000C330B2053310941
:10540000280F391F808180538A3060F33093E6057E
:105410002093E505DF0131968C918032D9F31D345C
:10542000D1F42E31310591F03CF42731310571F082
:105430002C31310581F40AC02537310564F0273756
:10544000310524F0203A43E0340729F4B093D9051C
:10545000A093D80580C01092D9051092D80500916C
:10546000B90A61E070E0FD0131968C91882309F45E
:1054700072C08132A1F41D3491F42032310579F4E7
:10548000F093D905E093D80563E270E0CF010E9464
:1054900068EA009709F45FC0DC011C925CC09FEBD6
:1054A000D92ED80E49E1C42ECD14C0F1AF01FA01B6
:1054B00090814F5F5F4F9032D1F340ED490F4A30FA
:1054C00040F043ED490F423020F09B3211F00C9434
:1054D0008643AF01AD2CB12C7501A3E0F594E794A0
:1054E000AA95E1F7C7018E529A4F7C018D2D8770E6
:1054F000DB0102C0AA0FBB1F8A95E2F7CD01D701DD
:105500009C91892B8C934115510511F0401B01C0D2
:1055100040E0D501A854BA4F4C930AC08091D805F9
:105520009091D905892B21F4B093D905A093D80582
:10553000808181548A3110F4DF0195CFDF013196EB
:105540009C9190539A30D0F3CD01FC01019640819B
:105550004032D9F3F1CF8091E7058D3411F40C94EA
:10556000BE35843511F40C942343873411F00C9428
:1055700065438091E5059091E6058C31910509F42C
:10558000E0C684F48430910544F4823091050CF037
:10559000ECC097FF2BC00C947F43049709F494C68A
:1055A0000C947F438A32910511F40C94BA355CF463
:1055B0008D31910511F40C9472344E9711F40C94C2
:1055C00076340C947F438B35910511F40C94FC34A4
:1055D0008C35910511F40C9401358A35910511F043
:1055E0000C947F431092E4050C947F4380916102F8
:1055F000882311F40C947F430E9420760E946A72E3
:1056000080919C08873009F06AC081E08093050290
:1056100080E090E00E94096F80919808882319F13A
:1056200084E090E0909396178093951785E080939F
:10563000891712E810938C1784E190E1A0E0B0E0A4
:1056400080938D1790938E17A0938F17B093901718
:105650000E94AFB881E09AE59093961780939517D2
:105660008CE090E022C080E190E0909396178093C8
:10567000951785E08093891712E810938C1784E1C1
:1056800090E1A0E0B0E080938D1790938E17A093E7
:105690008F17B09390170E94AFB881E09AE590936E
:1056A00096178093951786E390E0909398178093D0
:1056B000971787E08093891710938C1784E890E000
:1056C000A0E0B0E080938D1790938E17A0938F1772
:1056D000B09390170E94AFB810929C083BC08530E1
:1056E000B9F581E08093050280E090E00E94096FA7
:1056F00010929C0880919808882349F081E09AE5EF
:1057000090939617809395178CE290E008C081E003
:105710009AE5909396178093951781E590E0909382
:1057200098178093971787E08093891782E8809372
:105730008C1784E890E0A0E0B0E080938D17909300
:105740008E17A0938F17B09390170E94AFB802C026
:10575000823011F280919A08813011F00C947F43CD
:1057600082E080939A080C947F4320916102222367
:1057700011F40C947F4311E0029709F010E00E94AD
:10578000207682E50E94B5CE882309F452C10E949A
:1057900012596B017C014090F4175090F5176090FE
:1057A000F6177090F7172091F8173091F91740917C
:1057B000FA175091FB172BAF3CAF4DAF5EAF809106
:1057C000CE0A9091CF0AA091D00AB091D10A239627
:1057D0008CAF9DAFAEAFBFAF23972091D20A30916F
:1057E000D30A4091D40A5091D50A2B962CAF3DAFE5
:1057F0004EAF5FAF2B9720E030E0A901C701B601A3
:105800000E9488E0882309F445C5A30192012396EC
:105810006CAD7DAD8EAD9FAD23970E9488E0811168
:105820000FC02BAD3CAD4DAD5EAD2B966CAD7DADDF
:105830008EAD9FAD2B970E9488E0882309F42AC57E
:1058400020E030E0A901C701B6010E9488E0881F6E
:105850008827881F18130BC080E090E0A0E8BFE302
:1058600067968CAF9DAFAEAFBFAF67970AC020E021
:1058700030E040E85FEB67962CAF3DAF4EAF5FAFD7
:105880006797A301920123966CAD7DAD8EAD9FAD60
:1058900023970E9425E72F966CAF7DAF8EAF9FAF09
:1058A0002F972BAD3CAD4DAD5EAD2B966CAD7DAD68
:1058B0008EAD9FAD2B970E9425E763966CAF7DAFB1
:1058C0008EAF9FAF63972F962CAD3DAD4EAD5FADC4
:1058D0002F97CA01B9010E94EDE04B015C0163966C
:1058E0002CAD3DAD4EAD5FAD6397CA01B9010E94CD
:1058F000EDE09B01AC01C501B4010E9426E70E94C6
:1059000092E927966CAF7DAF8EAF9FAF279720E0CF
:1059100030E040E05FE30E94EDE04B015C01A70155
:105920009601C701B6010E94EDE06B017C01A50163
:105930009401C501B4010E94EDE09B01AC01C701D7
:10594000B6010E9425E70E9492E99B01AC0167968F
:105950006CAD7DAD8EAD9FAD67970E94EDE04B01C4
:105960005C0123962CAD3DAD4EAD5FAD2397C301D9
:10597000B2010E9426E720E030E040E05FE30E94B1
:10598000EDE06B017C0163966CAD7DAD8EAD9FAD9E
:105990006397905827962CAD3DAD4EAD5FAD2797E0
:1059A0000E9402E89B01AC01C501B4010E94EDE038
:1059B0009B01AC01C701B6010E9426E7A301920139
:1059C0000E9425E76B017C012B962CAD3DAD4EADC1
:1059D0005FAD2B976BAD7CAD8DAD9EAD0E9426E784
:1059E00020E030E040E05FE30E94EDE02B013C016D
:1059F00027962CAD3DAD4EAD5FAD27972F966CAD84
:105A00007DAD8EAD9FAD2F970E9402E89B01AC014A
:105A1000C501B4010E94EDE09B01AC01C301B201DC
:105A20000E9426E72BAD3CAD4DAD5EAD0E9425E753
:105A300014C089E40E94B5CE882329F00E9412592F
:105A40006B017C0103C0C12CD12C76018AE40E9439
:105A5000B5CE8823F9F00E9412592B966CAF7DAF1A
:105A60008EAF9FAF2B9720E030E0A901C701B601B0
:105A70000E9488E081111EC020E030E0A9012B9631
:105A80006CAD7DAD8EAD9FAD2B970E9488E08111EE
:105A900011C000C420E030E0A901C701B6010E9496
:105AA00088E0882309F4F6C32B961CAE1DAE1EAE0B
:105AB0001FAE2B97D701C601B0588BAF9CAFADAFCF
:105AC000BEAF2B962CAD3DAD4EAD5FAD2B97505874
:105AD00023962CAF3DAF4EAF5FAF23979C01AD0136
