:100000000C94EB100C941C110C941C110C941C11EE
:100010000C941C110C941C110C941C110C941C11AC
:100020000C941C110C941C110C941C110C941C119C
:100030000C941C110C941C110C941C110C941C118C
:100040000C941C110C947F570C941C110C941C11D3
:100050000C941C110C941C110C94F1620C94FF6113
:100060000C941C110C9451D50C941C110C941C1163
:100070000C941C110C941C110C941C110C941C114C
:100080000C941C110C941C110C941C110C941C113C
:100090000C941C110C941C110C941C110C941C112C
:1000A0000C941C110C941C110C941C110C941C111C
:1000B0000C941C110C941C110C941C110C941C110C
:1000C0000C941C110C941C110C941C110C942B609E
:1000D0000C9402600C941C110C941C110C941C11B7
:1000E0000C941C11FA12F3142C17D315A62FA62F5B
:1000F0002A1A921ADE1AA62FA62F181DAF1F362015
:10010000A62FD522A62FA62F2424A62FA62F572709
:10011000D527262AE82B772CA05FA35F925F965FF6
:100120009C5FDA5FA75FAB5FB15FB55FB95FBF5F31
:10013000C35FC75FDA5FCD5FD15FD55F1B612061B1
:1001400025612F613961B26143614B6153615D612A
:100150006761716180618A61B26194619E61A86129
:10016000084AD73B3BCE016E84BCBFFDC12F3D6C1E
:1001700074319ABD56833DDA3D00C77F11BED9E484
:10018000BB4C3E916BAAAABE000000803F05A84C64
:10019000CDB2D44EB93836A9020C50B99186880830
:1001A0003CA6AAAA2ABE000000803F004E414E494C
:1001B0004E495459494E46CDCCCC3D0AD7233C1725
:1001C000B7D13877CC2B329595E6241FB14F0A0072
:1001D0000020410000C84200401C4620BCBE4CCA62
:1001E0001B0E5AAEC59D7400407A10F35A00A072DF
:1001F0004E18090010A5D4E80000E8764817000062
:10020000E40B54020000CA9A3B000000E1F505002F
:100210000080969800000040420F000000A0860178
:10022000000000102700000000E803000000006448
:1002300000000000000A00000000000100000000B3
:10024000002C76D888DC674F0823DFC1DFAE59E188
:10025000B1B796E5E3E453C63AE651997696E8E6F7
:10026000C28426EB898C9B62ED407C6FFCEFBC9CCA
:100270009F40F2BAA56FA5F490055A2AF75C936BDC
:100280006CF9676DC11BFCE0E40D47FEF520E6B597
:1002900000D0ED902E0300943577050080841E0871
:1002A0000000204E0A000000C80C333333330F988F
:1002B0006E12831141EF8D2114893BE65516CFFE56
:1002C000E6DB18D1844B381BF77C1D901DA4BBE4E2
:1002D00024203284725E228100C9F124ECA1E53D24
:1002E000274D3234004D32332025730054256900E8
:1002F0004D3130362053323535004D3130392053B1
:100300002569004D31393020532569004730205A86
:100310002573004D31303920532569004D31393076
:1003200020532569004D32340047312046313030AA
:10033000205A31302E3200473238004D34323020CE
:100340005330004D34323020533100473120463194
:100350003030205A2D330047312058333020593265
:10036000373020463530303000473120463130308C
:10037000205A333B0047312046313030205A2D334C
:100380000047312058323730205932373020463537
:100390003030300047312046313030205A333B0076
:1003A00047312046313030205A2D33004731205814
:1003B0003237302059333020463530303000473125
:1003C0002046313030205A333B004731204631300F
:1003D00030205A2D330047312058333020593330E4
:1003E0002046353030300047312046313030205AF9
:1003F000333B0047312046313030205A2D330047FF
:100400003120583135352059313535204635303099
:10041000300047312046313030205A333B004731DD
:100420002046313030205A302E32004731205831AA
:10043000353520593135352046353030300047319B
:100440002046313030205A31302E323B004732398D
:100450000047312046323030205A302E32004739A2
:100460003000473238205830205930205A30004769
:1004700031205A302E322020463135300047323874
:10048000205A3000473238004D3834004731205A66
:10049000302E322046313530004732380047302088
:1004A0005A2573004D31303920532569004D3139BB
:1004B0003020532569004732382058302059300009
:1004C00047323820583020593000434F4D4D554E5B
:1004D00049434154494F4E0044525952554E0045EC
:1004E00052524F525300494E464F004543484F0029
:1004F00047322F47332062616420706172616D65FD
:10050000746572730A00473239005A2070726F6244
:1005100065206F75742E206265640A0047323820AA
:100520005A20466F7262696464656E0A00205A3A06
:10053000200020593A200042656420583A20005398
:1005400044207072696E74696E67206279746520E8
:10055000004E6F74205344207072696E74696E6728
:100560000A0046696C652064656C657465643A00D0
:1005700044656C6574696F6E206661696C65642C96
:100580002046696C653A20006F70656E206661696F
:100590006C65642C2046696C653A200025697300FF
:1005A00025696D20256973002569682025696D20FE
:1005B00025697300256964202569682025696D20F7
:1005C00025697300256979202569642025696820DB
:1005D00025696D20256973005072696E74207469F5
:1005E0006D653A2000000136372603FF3C3D380E8A
:1005F000FF2E303E12FFFF0C0809FFFFFF1A1C18E8
:10060000FFFF08440AFF43FFFFFFFFFFFF50726F29
:100610007465637465642050696E0A00EB04E60437
:10062000DF04D804CA046F66660044454255473A61
:10063000004B494C4C45442E20004D313133205362
:10064000006F6B0047323820583020593000205757
:100650003A004732382058302059300020573A00AD
:100660004361703A454D455247454E43595F5041AD
:10067000525345523A300A004361703A4341534560
:100680005F4C494748545F4252494748544E45538E
:10069000533A300A004361703A544F47474C455F24
:1006A0004C49474854533A300A004361703A534F1B
:1006B0004654574152455F504F5745523A300A0011
:1006C0004361703A4C4556454C494E475F4441544E
:1006D000413A310A004361703A5A5F50524F4245E5
:1006E0003A310A004361703A4155544F4C455645E2
:1006F0004C3A310A004361703A5052494E545F4AB5
:100700004F423A310A004361703A50524F475245C6
:1007100053533A300A004361703A4155544F5245A1
:10072000504F52545F54454D503A310A0043617066
:100730003A454550524F4D3A310A004649524D57BD
:100740004152455F4E414D453A4D61726C696E2094
:1007500056657220312E36302E372028437265615F
:100760006C69747933442920534F555243455F4394
:100770004F44455F55524C3A68747470733A2F2F4A
:100780006769746875622E636F6D2F4D61726C6955
:100790006E4669726D776172652F4D61726C696E1C
:1007A0002050524F544F434F4C5F56455253494F80
:1007B0004E3A312E30204D414348494E455F545901
:1007C00050453A7777772E6378737733642E636F6B
:1007D0006D2045585452554445525F434F554E5431
:1007E0003A3120555549443A636564653261326651
:1007F0002D343161322D343734382D396231322D78
:100800006335356336326633363766660A002F2F16
:1008100020007A5F6D696E3A2000795F6D696E3AEB
:100820002000785F6D696E3A20005265706F7274B7
:10083000696E6720656E6473746F70207374617481
:1008400075730A0020643A0020693A0020703A006B
:1008500043290A0061626C656420286D696E20740A
:10086000656D702000436F6C6420657874727564E8
:1008700065732061726520004F66660A00466164F8
:1008800065204865696768742000426564204C658E
:1008900076656C696E6720004661696C65642074DA
:1008A0006F20656E61626C6520426564204C6576E0
:1008B000656C696E670A00416374697665204578E6
:1008C0007472756465723A2000556E6B6E6F776E48
:1008D00020636F6D6D616E643A2022004B494C4C71
:1008E00045442E2000202D20496E76616C696420DD
:1008F0006578747275646572206E756D62657220BC
:10090000210A004D343230205331004D3432302032
:100910005330002020506C616E6E657242756666C1
:10092000657242797465733A2000204672656520CD
:100930004D656D6F72793A2000436F6D70696C651B
:10094000643A204D617220203420323031390A005F
:10095000207C20417574686F723A2043522D3130EB
:10096000532050726F0A00323031372D31302D3123
:10097000302031323A303000204C61737420557091
:1009800064617465643A200056657220312E3630F9
:100990002E370A004D61726C696E0020536F6674C9
:1009A000776172652052657365740A00205761741F
:1009B0006368646F672052657365740A0020427231
:1009C0006F776E206F75742052657365740A00200E
:1009D00045787465726E616C2052657365740A00A7
:1009E000506F77657255700A0073746172740A00F3
:1009F0006572726F722077726974696E6720746FA6
:100A00002066696C650A00205A3A0020593A002095
:100A1000583A00656E6473746F7073206869743A35
:100A20002000446F6E6520736176696E6720666989
:100A30006C652E0A004D32390024F4D43050C38E38
:100A400020C2A24017828B7011127A910D816CD94D
:100A50000AA861E108C7586607615143061E4B5D4D
:100A600005C145A7041A411104093D9803713931A4
:100A7000034036DB0265339102D4305402802E1DD0
:100A800002632CEE01752AC501B028A00110278150
:100A9000018F2564012B244B01E0223401AC211F7E
:100AA000018D200D01801FFC00841EED00971DDFCD
:100AB00000B81CD200E61BC600201BBC00641AB2A2
:100AC00000B219A8000A19A0006A189900D117915C
:100AD0000040178B00B516840031167E00B31579DF
:100AE000003A157300C7146F0058146A00EE1366BD
:100AF000008813630025135E00C7125B006C125759
:100B00000015125400C111510070114F0021114BFA
:100B100000D61049008D10470046104400021042D4
:100B200000C00F4000800F3E00420F3C00060F3B0C
:100B300000CB0E3800930E37005C0E3500270E34C4
:100B400000F30D3200C10D3100900D3000600D2E0C
:100B500000320D2D00050D2C00D90C2B00AE0C29F8
:100B600000850C29005C0C2700350C27000E0C2694
:100B700000E80B2400C40B2400A00B23007D0B23F2
:100B8000005A0B2100390B2100180B2000F80A1F16
:100B900000D90A1E00BB0A1E009D0A1D00800A1D06
:100BA00000630A1C00470A1B002C0A1B00110A1ACA
:100BB00000F7091A00DD091900C4091900AB091969
:100BC00000920917007B091800630917004C0916E9
:100BD0000036091600200916000A091500F5081547
:100BE00000E0081400CC081400B8081400A408148D
:100BF00000900813007D0812006B081300580812BB
:100C000000460812003408110023081100120811D0
:100C10000001081100F0071000E0071000D00710D5
:100C200000C0071000B0070F00A107100091070EC9
:100C30000083070F0074070F0065070E0057070EAB
:100C40000049070E003B070D002E070E0020070D80
:100C50000013070D0006070D00F9060C00ED060D48
:100C600000E0060C00D4060C00C8060C00BC060C04
:100C700000B0060C00A4060B0099060C008D060BB4
:100C80000082060B0077060B006C060B0061060A5B
:100C90000057060B004C060A0042060A0038060AF6
:100CA000002E060A0024060A001A060A0010060989
:100CB0000007060A00FD050900F4050900EB050917
:100CC00000E2050900D9050900D0050900C705099A
:100CD00000BE050900B5050800AD050800A5050919
:100CE000009C050800940508008C05080084050890
:100CF000007C050800740508006C05070065050800
:100D0000005D050700560508004E0507004705076A
:100D1000004005080038050700310507002A0507CF
:100D200000230507001C050600160507000F050730
:100D3000000805060002050700FB040600F504078D
:100D400000EE040600E8040600E2040700DB0406E7
:100D500000D5040600CF040600C9040600C304063B
:100D600000BD040600B7040600B1040500AC04068B
:100D700000A6040600A00405009B040600950405D7
:100D800000900406008A040500850405008004061E
:100D9000007A04050075040500700405006B040565
:100DA0000066040500610405005C040500570405A5
:100DB00000520405004D04050048040500430405E5
:100DC000003E0404003A0405003504050030040424
:100DD000002C04050027040400230405001E04045D
:100DE000001A04040016040500110404000D040494
:100DF00000090405000404040000040400FC0304CA
:100E000000F8030400F4030400F0030400EC0304FE
:100E100000E8030400E4030400E0030400DC03042E
:100E200000D8030400D4030400D0030400CC03045E
:100E300000C8030300C503030024F404D9201BC425
:100E40000C5C0E9804C4095F0265077101F405F992
:100E500000FB04B30048048700C103690058035530
:100E60000003034500BE023A008402310053022A07
:100E7000002902250004022000E4011C00C8011919
:100E800000AF0117009801140084011300710110D4
:100E9000006101100051010E0043010D0036010BED
:100EA000002B010B0020010B00150109000C0109AA
:100EB0000003010800FB000800F3000800EB000736
:100EC00000E4000600DE000600D8000600D200069E
:100ED00000CC000500C7000500C2000500BD0004ED
:100EE00000B9000400B5000400B1000400AD000426
:100EF00000A9000400A5000300A20003009F000455
:100F0000009B00030098000300950002009300037B
:100F100000900003008D0002008B00030088000297
:100F2000008600020084000300810002007F0002AE
:100F3000007D0002007B00020079000200770001C2
:100F400000760002007400020072000100710002CD
:100F5000006F0002006D0001006C0002006A0001D9
:100F600000690002006700010066000100650001E1
:100F700000640002006200010061000100600001E5
:100F8000005F0002005D0001005C0001005B0001E9
:100F9000005A0001005900010058000100570001EB
:100FA00000560001005500010054000100530000EC
:100FB00000530001005200010051000100500001E7
:100FC000004F0001004E0000004E0001004D0001E6
:100FD000004C0001004B0000004B0001004A0001E2
:100FE00000490001004800000048000100470001DE
:100FF00000460000004600010045000000450001D9
:1010000000440001004300000043000100420000D2
:1010100000420001004100000041000100400001C9
:10102000003F0000003F0001003E0000003E0001C4
:10103000003D0000003D0001003C0000003C0000BD
:10104000003C0001003B0000003B0001003A0000B2
:10105000003A0001003900000039000100380000AA
:1010600000380000003800010037000000370001A0
:101070000036000000360000003600010035000098
:10108000003500000035000100340000003400008D
:101090000034000100330000003300000033000181
:1010A0000032000000320000003200010031000078
:1010B000003100000031000100300000003000006D
:1010C00000300001002F0000002F0000002F000062
:1010D000002F0001002E0000002E0000002E000155
:1010E000002D0000002D0000002D0000002D00014B
:1010F000002C0000002C0000002C0000002C00013F
:10110000002B0000002B0000002B0000002B000132
:10111000002A0000002A0000002A0000002A000126
:10112000002900000029000000290000002900001B
:10113000002900010028000000280000002800000D
:101140000028000000280001002700000027000000
:1011500000270000002700000027000100260000F3
:1011600000260000002600000026000000260001E6
:1011700000250000002500000025000000250000DB
:1011800000250000002500010024000000240000CC
:1011900000240000002400000024000100230000BF
:1011A00000230000002300000023000000230000B3
:1011B00000230000002300010022000000220000A4
:1011C0000022000000220000002200000022000196
:1011D000002100000021000000210000002100008B
:1011E000002100000021000000210001002000007B
:1011F000002000000020000000200000002000006F
:10120000002000000020000000200001001F00005E
:10121000001F0000001F0000001F0000001F000052
:10122000001F0000001F0001001E0000001E000043
:10123000001E0000001E0000004D383420582059C8
:10124000205A2045006265640A002C20737973746B
:10125000656D2073746F70706564212048656174DA
:1012600065725F49443A200048656174696E672081
:101270006661696C65640048656174696E672066C3
:1012800061696C65640048656174696E67206661B8
:10129000696C65640048656174696E6720666169A0
:1012A0006C65640070012C0190012701B0012201DE
:1012B000C0011D01F00118011002130130020E01DE
:1012C0006002090190020401C002FF000003FA005D
:1012D0004003F5008003F000D003EB002004E6009B
:1012E0007004E100E004DC004005D700C005D20036
:1012F0004006CD00D006C8008007C3003008BE00FD
:10130000F008B900C009B400B00AAF00B00BAA00E1
:10131000D00CA500000EA000500F9B00C01096003E
:101320005012910000148C00C0158700B017820085
:10133000B0197D00D01B7800001E730040206E00A5
:1013400090226900F024640040275F0090295A0031
:10135000E02B5500102E500020304B00103246007C
:10136000E033410090353C001037370070383200D0
:10137000A0392D00B03A2800A03B2300603C1E009D
:10138000103D1900903D1400103E0F00703E0A0001
:10139000C03E0500003F0000403FFBFF803FF6FFDE
:1013A000C03FF1FF544845524D414C2052554E41EB
:1013B00057415900546865726D616C2052756E61B9
:1013C000776179004572723A204D494E54454D502F
:1013D00020424544004572723A204D494E54454DD5
:1013E00050004D494E54454D5020747269676765F1
:1013F000726564004572723A204D415854454D5013
:1014000020424544004572723A204D415854454DA2
:1014100050004D415854454D5020747269676765BE
:101420007265640000002100240027002A002D00BE
:101430003000330001010000040107010A0100002F
:101440002200250028002B002E003100340002016C
:101450000000050108010B01000020002300260008
:1014600029002C002F0032000001000003010601BA
:10147000090105050505070508080808020202021A
:101480000A0A080804040404010101010101010120
:101490000303030303030303040707070C0C0C0CEB
:1014A0000C0C0C0C020202020606060606060606D4
:1014B0000B0B0B0B0B0B0B0B010210202008081061
:1014C00020401020408002010201080402010102B4
:1014D000040810204080804020100804020180048D
:1014E00002018040201008040201080402010102E8
:1014F00004081020408001020408102040800000F1
:101500000A0B02090C0D0E0807030401000000007D
:1015100000000000000000000000000000000000CB
:101520000000000000000000000012111000000088
:1015300000000000000000000000000000000000AB
:101540000000000020746F6F206C6F6E672065785C
:1015500074727573696F6E2070726576656E7465EE
:10156000640A0020636F6C64206578747275736917
:101570006F6E2070726576656E7465640A005265E0
:1015800073656E643A20006F6B0020746F6F206C7F
:101590006F6E6720657874727573696F6E207072F4
:1015A0006576656E7465640A0020636F6C642065FF
:1015B0007874727573696F6E2070726576656E747B
:1015C00065640A00627573793A20706175736564A9
:1015D00020666F7220696E7075740A006275737987
:1015E0003A2070617573656420666F72207573654B
:1015F000720A00627573793A2070726F6365737353
:10160000696E670A004B494C4C45442E20004B49FB
:101610004C4C20636175736564206279204B494CA2
:101620004C20627574746F6E2F70696E0A004B499E
:101630004C4C45442E20004B494C4C206361757343
:10164000656420627920746F6F206D75636820690E
:101650006E6163746976652074696D65202D206301
:10166000757272656E7420636F6D6D616E643A2081
:10167000005072696E7465722068616C7465642EC6
:10168000206B696C6C28292063616C6C6564210A8D
:101690000000000000000000000000000000004802
:1016A0004200004842000080400000000057617284
:1016B0006E696E673A20486F6D696E672042756D7E
:1016C000702044697669736F72203C20310A0002F1
:1016D00002040000A0400000A04000000040000004
:1016E0009B4300009B430000C943FFFFFF50726F04
:1016F00062696E67206661696C65640A00205A3A07
:10170000200020593A200042656420583A20004DBC
:101710003834004572726F722077726974696E672F
:1017200020746F20454550524F4D210A00290A0070
:101730002062797465733B20637263200053657483
:1017400074696E67732053746F726564202800207B
:101750002863616C63756C6174656429210A0020DB
:10176000213D2000454550524F4D20435243206DAE
:1017700069736D61746368202D202873746F7265BE
:1017800064292000290A002062797465733B206374
:10179000726320002073746F7265642073657474C3
:1017A000696E677320726574726965766564202856
:1017B00000204D61726C696E3D563431290A002853
:1017C000454550524F4D3D00454550524F4D2076B6
:1017D000657273696F6E206D69736D6174636820E3
:1017E0000048617264636F64656420446566617576
:1017F0006C742053657474696E6773204C6F6164F8
:1018000065640A00F4010000F401000064000000B7
:101810008813000000009643000096430000A0409B
:101820000000C8410000A0420000A0420000C843E0
:1018300000000C437C3C3E5E2B3D3F2F5B5D3B2C10
:101840002A225C004E6F204C696E65204E756D62D9
:101850006572207769746820636865636B73756D62
:101860002C204C617374204C696E653A20004B4902
:101870004C4C45442E20005072696E746572207382
:10188000746F707065642064756520746F20657274
:10189000726F72732E2046697820746865206572B5
:1018A000726F7220616E6420757365204D3939390D
:1018B00020746F20726573746172742E20285465D1
:1018C0006D706572617475726520697320726573DD
:1018D00065742E2053657420697420616674657286
:1018E0002072657374617274696E67290A004E6FA5
:1018F00020436865636B73756D2077697468206C2D
:10190000696E65206E756D6265722C204C61737412
:10191000204C696E653A2000636865636B73756D72
:10192000206D69736D617463682C204C6173742041
:101930004C696E653A20004C696E65204E756D628B
:101940006572206973206E6F74204C617374204C33
:10195000696E65204E756D6265722B312C204C616D
:101960007374204C696E653A20004D313130004D62
:101970003331004D383420582059205A2045005327
:10198000442072656164206572726F720A00446F50
:101990006E65207072696E74696E672066696C6529
:1019A0000A004D3234004D323320257300617574C6
:1019B0006F25692E670057726974696E6720746FAE
:1019C0002066696C653A20006F70656E20666169FB
:1019D0006C65642C2046696C653A20006F70656EFA
:1019E000206661696C65642C2046696C653A20004C
:1019F00046696C652073656C65637465640A0020D4
:101A000053697A653A200046696C65206F70656E8F
:101A100065643A20006F70656E206661696C65646C
:101A20002C2046696C653A20002066696C653A2076
:101A3000004E6F7720002220706F730022207061AB
:101A400072656E743A2200535542524F5554494EB6
:101A5000452043414C4C207461726765743A220002
:101A60004B494C4C45442E2000747279696E6720B6
:101A7000746F2063616C6C207375622D67636F6493
:101A8000652066696C6573207769746820746F6F70
:101A9000206D616E79206C6576656C732E204D41EA
:101AA00058206C6576656C2069733A004572726FD8
:101AB000723A0043616E6E6F74206F70656E2073B2
:101AC000756264697220002066697273740A005A34
:101AD0000059005800486F6D65200052756E6E69A0
:101AE0006E6720696E204452592D52554E206D6FFD
:101AF00064650A00473239204175746F204265647D
:101B0000204C6576656C696E670A0028422961631E
:101B10006B00284629726F6E740028522969676825
:101B20007400284C29656674003F28562965726246
:101B30006F7365206C6576656C20697320696D70C4
:101B40006C61757369626C652028302D34292E0A0A
:101B500000426164205A2076616C75650A004E6F00
:101B60002062696C696E65617220677269640A003F
:101B70004D65736820706F696E742063616E6E6F5F
:101B800074206265207265736F6C7665640A005319
:101B9000442063617264206F6B0A006F70656E523F
:101BA0006F6F74206661696C65640A00766F6C758E
:101BB0006D652E696E6974206661696C65640A00E2
:101BC000534420696E6974206661696C0A00456E31
:101BD000642066696C65206C6973740A00426567ED
:101BE000696E2066696C65206C6973740A00202F29
:101BF000002042403A0020403A00205A3A00205942
:101C00003A0020436F756E7420583A0020453A0020
:101C1000205A3A0020593A00583A005365747469C2
:101C20006E672054726176656C20416363656C65F4
:101C3000726174696F6E3A200053657474696E67DF
:101C4000205265747261637420416363656C6572D0
:101C50006174696F6E3A200053657474696E672011
:101C60005072696E7420416363656C65726174695A
:101C70006F6E3A200053657474696E672050726904
:101C80006E7420616E642054726176656C204163CD
:101C900063656C65726174696F6E3A2000205A004A
:101CA000205900580020204D61783A2000205A0029
:101CB000205900580020204D696E3A20004F6E20B8
:101CC000004F666600536F667420656E6473746FB0
:101CD00070733A200062696E004D31313720494EF1
:101CE00056414C494420444154412E004730205A2B
:101CF00025730047323820583020593000473020B3
:101D00005A257300473932205A2573204525730020
:101D100062696E0020204D383531205A005A2D500E
:101D2000726F6265204F666673657420286D6D2939
:101D30003A0A0020440020490020204D3330312051
:101D400050005049442073657474696E67733A0A91
:101D500000205A0020204D34323020530041757449
:101D60006F20426564204C6576656C696E673A0A3F
:101D700000205A0020590020204D323036205800D3
:101D8000486F6D65206F66667365743A0A0020457A
:101D900000205A0020590020580020420020540002
:101DA00020204D323035205300416476616E6365EA
:101DB000643A20533C6D696E5F6665656472617458
:101DC000653E20543C6D696E5F74726176656C5F30
:101DD00066656564726174653E20423C6D696E5F44
:101DE0007365676D656E745F74696D655F6D733E75
:101DF00020583C6D61785F78795F6A65726B3E2030
:101E00005A3C6D61785F7A5F6A65726B3E20453C33
:101E10006D61785F655F6A65726B3E0A00205400F1
:101E200020520020204D3230342050004163636541
:101E30006C65726174696F6E2028756E6974732F9A
:101E40007332293A20503C7072696E745F6163632B
:101E5000656C3E20523C726574726163745F6163AD
:101E600063656C3E20543C74726176656C5F61639F
:101E700063656C3E0A00204500205A00205900206E
:101E8000204D3230312058004D6178696D756D20DC
:101E9000416363656C65726174696F6E2028756E4D
:101EA0006974732F7332293A0A00204500205A00C2
:101EB00020590020204D3230332058004D61786980
:101EC0006D756D2066656564726174657320287533
:101ED0006E6974732F73293A0A00204500205A0056
:101EE00020590020204D39322058005374657073FA
:101EF0002070657220756E69743A0A0020204D3298
:101F000030302044300A0020204D32303020440050
:101F10002044697361626C65640A0046696C616D96
:101F2000656E742073657474696E67733A0020205F
:101F30004D3134392043203B20556E69747320693C
:101F40006E2043656C736975730A00202047323137
:101F5000202020203B20556E69747320696E206D0F
:101F60006D0A0023646566696E652020444546411C
:101F7000554C545F4B64200023646566696E652090
:101F80002044454641554C545F4B6920002364650D
:101F900066696E65202044454641554C545F4B7040
:101FA0002000504944204175746F74756E65206639
:101FB000696E697368656421205075742074686562
:101FC000206C617374204B702C204B6920616E640F
:101FD000204B6420636F6E7374616E74732066723D
:101FE0006F6D2062656C6F7720696E746F20436F30
:101FF0006E66696775726174696F6E2E680A00504B
:102000004944204175746F74756E65206661696C12
:102010006564212074696D656F75740A00504944C8
:10202000204175746F74756E65206661696C6564B6
:10203000212054656D706572617475726520746FCE
:102040006F20686967680A00204B643A2000204BC3
:10205000693A2000204B703A20000A20436C6173DB
:1020600073696320504944200A002054753A2000C7
:10207000204B753A2000206D61783A2000206D6970
:102080006E3A200020643A200020626961733A2091
:10209000004D65736820706F696E742063616E6EA9
:1020A0006F74206265207265736F6C7665640A00D8
:1020B0004D34323120696E636F72726563742070C3
:1020C0006172616D657465722075736167650A0080
:1020D000546F6F206661722066726F6D2072656644
:1020E0006572656E636520706F696E740A00207A90
:1020F00070726F62655F7A6F66667365743D20000B
:102100007A5F6D696E3A20202D3230207A5F6D61E2
:10211000783A20203230005A204F6666736574206A
:10212000004E6F2063617365206C696768740A00F4
:1021300020496E76616C6964206578747275646597
:1021400072200000000000000000000000000000FD
:10215000009B4300009B430000C94342696C696EC9
:10216000656172204C6576656C696E67204772699F
:10217000643A0A0020706F736974696F6E206F751E
:1021800074206F662072616E67652E0A003F507280
:102190006F62652000656E7175657565696E672093
:1021A00022006563686F3A002E0A006F70656E202A
:1021B0006661696C65642C2046696C653A2000573D
:1021C000726974696E6720746F2066696C653A2065
:1021D0000000BFE091DE11241FBECFEFD1E2DEBFD1
:1021E000CDBF00E00CBF15E0A0E0B2E0E8EFF1EEFB
:1021F00001E00BBF02C007900D92A437B107D9F7D9
:102200002CE1A4E7B5E001C01D92A932B207E1F7C5
:1022100010E1CAEED0E100E006C021970109802F4D
:10222000FE010E9435F0C93ED10780E00807A9F7FA
:102230000E947AD50C94EBF00C9400004F925F92C0
:102240006F927F928F929F92AF92BF92CF92DF92C6
:10225000EF92FF920F931F93CF93DF93CDB7DEB72B
:10226000E2970FB6F894DEBF0FBECDBF0E94DD83AC
:102270008091E514823009F068C08091BD188823F0
:1022800009F463C0649961C08091E6148F5F809304
:10229000E61465E070E080E090E00E94BB61809110
:1022A000E61483330CF451C085E08093E7148091E9
:1022B000CC0E9091CD0EA091CE0EB091CF0E80930A
:1022C000BE059093BF05A093C005B093C1051092C1
:1022D000BD180E94C0B48091BC059091BD05892BAA
:1022E00041F480912806909129069093BD05809332
:1022F000BC058091850590918605892B41F48091DC
:102300002606909127069093860580938505109266
:102310002706109226060E94BB6581E08093460F37
:102320001092E6141092E51484E080932A0F109224
:10233000270F1092BE0C1092BD0C80EC94E090938D
:10234000BE118093BD110E94C29D0E94804B80915E
:10235000E71481110C94DF2F47E0842E4CE1942E7A
:102360005AE1752E8CEC97E10E94B05EA090870533
:10237000B09088051816190634F42AE1A216B104A3
:1023800014F40C94B42F1A141B0414F00C94DF2FC3
:102390009091681B8091071C981322C09091691B33
:1023A0008091081C98131CC033E0A316B104C4F03C
:1023B0009091091C9093671B80910A1C80936A1B63
:1023C0009330D9F4982F9D7F9038B9F490910B1CDD
:1023D0009F3409F05BC090910C1C9B3409F056C0EF
:1023E0008AE1E7E0FCE1DF011D928A95E9F71092AE
:1023F0008805109287050C94DF2F833809F046C0BA
:1024000080910B1C90E0A0E0B0E0BA2FA92F982F8C
:10241000882720910C1C822B80936B1B90936C1B44
:10242000A0936D1BB0936E1B80900D1C912CA12C62
:10243000B12C80926F1B9092701BA092711BB09276
:10244000721B80E090E0DC0188159905AA05BB05A8
:1024500008F04BC09C012959344EAC015595479565
:10246000440F551FBA016D58744EF901E955FF4FDD
:10247000408150E0542F442731962081422BFB01AC
:10248000518340830296A11DB11DDECF813869F5CD
:1024900080910B1C90E0A0E0B0E080936B1B9093C8
:1024A0006C1BA0936D1BB0936E1B80910C1C482F6E
:1024B00050E060E070E040936F1B5093701B60939E
:1024C000711B7093721BE3E7FBE190E020E030E0CA
:1024D0002817390751F0D901A35FB34E4C9150E052
:1024E000419351932F5F3F4FF3CF8AE1E7E0FCE147
:1024F000DF011D928A95E9F71092880510928705F1
:102500008091E714181614F40C94A62F40916B1BBD
:1025100050916C1B60916D1B70916E1BA5E6B2E033
:10252000E0E0F0E08D909D90AD90BD90811491041D
:10253000A104B104B1F1481559056A057B0579F587
:10254000DB01CA0188509041A109B1090597A10595
:10255000B10550F1DB01CA01877F82339041A105AB
:10256000B10529F1443330E1530761057105F9F0F4
:10257000DB01CA0186549041A109B1090797A10561
:10258000B105C0F0DB01CA0184559041A109B10930
:102590000597A105B10580F4E2E1F0E00DC03196A8
:1025A000C1CFEFEFFFEF08C0E3E0F0E005C0E8E0E7
:1025B000F0E002C0EFE0F0E0DB01CA018A50904297
:1025C000A109B109833D9105A105B10510F40C9451
:1025D000772CEF3F8FEFF80711F40C94A62FEA3118
:1025E000F10510F00C94A62F8827EE58FF4F8F4F5F
:1025F0000C9435F08091731B9091741B8130910580
:1026000009F052C01092050281E080932F0F8FEFE6
:102610008093C0110E94DD838091E314882311F11F
:1026200081E09AE59093C41B8093C31B82E090E005
:102630009093C61B8093C51B87E08093B71B82E8ED
:102640008093BA1B84E890E0A0E0B0E08093BB1BCD
:102650009093BC1BA093BD1BB093BE1B0E94F2CDF8
:102660000C94A62F81E09AE59093C41B8093C31B22
:102670008EE290E09093C61B8093C51B87E0809309
:10268000B71B82E88093BA1B84E890E0A0E0B0E03A
:102690008093BB1B9093BC1BA093BD1BB093BE1B30
:1026A0000E94F2CD0C94A62F8230910509F0F7C05C
:1026B00081E0809305021092270F0E944DC48BE0A9
:1026C00090E09093C41B8093C31B05E00093B71B5D
:1026D00012E81093BA1B80E092E1A0E0B0E0809392
:1026E000BB1B9093BC1BA093BD1BB093BE1B0E9451
:1026F000F2CD1092C41B1092C31B0093B71B109312
:10270000BA1B8EE090E1A0E0B0E08093BB1B9093F9
:10271000BC1BA093BD1BB093BE1B0E94F2CD1092B8
:10272000C41B1092C31B0093B71B1093BA1B8FE0FE
:1027300090E1A0E0B0E08093BB1B9093BC1BA09302
:10274000BD1BB093BE1B0E94F2CD1092C41B109211
:10275000C31B0093B71B1093BA1B86E190E1A0E066
:10276000B0E08093BB1B9093BC1BA093BD1BB093A8
:10277000BE1B0E94F2CD62E070E080E090E00E941B
:10278000BB611092C41B1092C31B0093B71B109324
:10279000BA1B80E190E1A0E0B0E08093BB1B909376
:1027A000BC1BA093BD1BB093BE1B0E94F2CD109228
:1027B000C41B1092C31B0093B71B1093BA1B82E17A
:1027C00090E1A0E0B0E08093BB1B9093BC1BA09372
:1027D000BD1BB093BE1B0E94F2CD1092AE1810929A
:1027E000AD181092B3181092B4181092B518109238
:1027F000B6181092B7181092B8181092B918109213
:10280000BA181092AF181092B0181092B118109216
:10281000B2188091E314882309F181E09AE590933E
:10282000C41B8093C31B81E090E09093C61B8093F0
:10283000C51B87E08093B71B1093BA1B84E890E018
:10284000A0E0B0E08093BB1B9093BC1BA093BD1B8A
:10285000B093BE1B0E94F2CD0C94A62F81E09AE5A6
:102860009093C41B8093C31B8DE290E09093C61B92
:102870008093C51B87E08093B71B1093BA1B84E835
:1028800090E0A0E0B0E08093BB1B9093BC1BA093B2
:10289000BD1BB093BE1B0E94F2CD0C94A62F8330BB
:1028A000910509F098C081E0809305021092270FEE
:1028B0009091E31480915402992309F446C088232F
:1028C00011F181E09AE59093C41B8093C31B80E1D2
:1028D00090E09093C61B8093C51B87E08093B71B45
:1028E00082E88093BA1B84E890E0A0E0B0E0809397
:1028F000BB1B9093BC1BA093BD1BB093BE1B0E943F
:10290000F2CD0C94A62F81E09AE59093C41B80939E
:10291000C31B8FE090E09093C61B8093C51B87E09C
:102920008093B71B82E88093BA1B84E890E0A0E014
:10293000B0E08093BB1B9093BC1BA093BD1BB093D6
:10294000BE1B0E94F2CD0C94A62F882311F181E0CA
:102950009AE59093C41B8093C31B8AE390E0909305
:10296000C61B8093C51B87E08093B71B82E88093CA
:10297000BA1B84E890E0A0E0B0E08093BB1B90938A
:10298000BC1BA093BD1BB093BE1B0E94F2CD0C9448
:10299000A62F81E09AE59093C41B8093C31B89E323
:1029A00090E09093C61B8093C51B87E08093B71B74
:1029B00082E88093BA1B84E890E0A0E0B0E08093C6
:1029C000BB1B9093BC1BA093BD1BB093BE1B0E946E
:1029D000F2CD0C94A62F049711F00C94A62F109210
:1029E00005020C94A62F8091731B9091741B81306B
:1029F0009105E1F5809154028823E1F082E090E0B6
:102A00009093C41B8093C31B85E08093B71B82E81F
:102A10008093BA1B8EE190E1A0E0B0E08093BB1BF5
:102A20009093BC1BA093BD1BB093BE1B0E94F2CD24
:102A30000C94A62F83E090E09093C41B8093C31B5B
:102A400085E08093B71B82E88093BA1B8EE190E10A
:102A5000A0E0B0E08093BB1B9093BC1BA093BD1B78
:102A6000B093BE1B0E94F2CD0C94A62F823091052C
:102A700009F0FCC081E08093050290912A0F8091BB
:102A8000E314933009F046C0882311F181E09AE500
:102A90009093C41B8093C31B8AE090E09093C61B65
:102AA0008093C51B87E08093B71B82E88093BA1B95
:102AB00084E890E0A0E0B0E08093BB1B9093BC1B47
:102AC000A093BD1BB093BE1B0E94F2CD0C94A62F09
:102AD00081E09AE59093C41B8093C31B84E390E04C
:102AE0009093C61B8093C51B87E08093B71B82E839
:102AF0008093BA1B84E890E0A0E0B0E08093BB1B19
:102B00009093BC1BA093BD1BB093BE1B0E94F2CD43
:102B10000C94A62F943009F063C0882311F181E052
:102B20009AE59093C41B8093C31B8CE090E0909334
:102B3000C61B8093C51B87E08093B71B82E88093F8
:102B4000BA1B84E890E0A0E0B0E08093BB1B9093B8
:102B5000BC1BA093BD1BB093BE1B0E94F2CD0C9476
:102B6000A62F81E09AE59093C41B8093C31B86E354
:102B700090E09093C61B8093C51B87E08093B71BA2
:102B800082E88093BA1B84E890E0A0E0B0E08093F4
:102B9000BB1B9093BC1BA093BD1BB093BE1B0E949C
:102BA000F2CD0C94A62F483090E1590761057105CC
:102BB00009F0CEC19091460F8091E314913009F451
:102BC00055C191115BC12091731B3091741B203F43
:102BD000310509F053C190912A0F933009F454CF75
:102BE000882311F181E09AE59093C41B8093C31B65
:102BF0008BE090E09093C61B8093C51B87E0809389
:102C0000B71B82E88093BA1B84E890E0A0E0B0E0B4
:102C10008093BB1B9093BC1BA093BD1BB093BE1BAA
:102C20000E94F2CD0C94A62F81E09AE59093C41BEC
:102C30008093C31B85E390E09093C61B8093C51BD4
:102C400087E08093B71B82E88093BA1B84E890E00A
:102C5000A0E0B0E08093BB1B9093BC1BA093BD1B76
:102C6000B093BE1B0E94F2CD0C94A62F8330910529
:102C700009F049C020915402222311F19093C41B02
:102C80008093C31B85E08093B71B82E88093BA1BB7
:102C90008EE190E1A0E0B0E08093BB1B9093BC1B61
:102CA000A093BD1BB093BE1B0E94F2CD8FEF90E0AE
:102CB00090932C0F80932B0F109254020C94A62FFC
:102CC00082E090E09093C41B8093C31B85E08093C7
:102CD000B71B82E88093BA1B8EE190E1A0E0B0E0E0
:102CE0008093BB1B9093BC1BA093BD1BB093BE1BDA
:102CF0000E94F2CD10922C0F10922B0F81E0809346
:102D000054020C94A62F049711F00C94A62F8091D6
:102D10000E02882309F452C082E090E09093C41B15
:102D20008093C31B05E00093B71B12E81093BA1BF6
:102D30008FE190E1A0E0B0E08093BB1B9093BC1BBF
:102D4000A093BD1BB093BE1B0E94F2CD8091850560
:102D5000909186050097D1F09093270680932606E0
:102D60009093C41B8093C31B0093B71B1093BA1B93
:102D70008AE390E1A0E0B0E08093BB1B9093BC1B82
:102D8000A093BD1BB093BE1B0E94F2CD10920E0209
:102D9000109204028091E314882319F088E090E0F7
:102DA00002C08AE090E09093C41B8093C31B85E02F
:102DB0008093B71B82E88093BA1B38C083E090E011
:102DC0009093C41B8093C31B05E00093B71B12E8CC
:102DD0001093BA1B8FE190E1A0E0B0E08093BB1BA1
:102DE0009093BC1BA093BD1BB093BE1B0E94F2CD61
:102DF00080912606909127069093860580938505FD
:102E000081E080930E02809304028091E314882372
:102E100019F087E090E002C089E090E09093C41B35
:102E20008093C31B0093B71B1093BA1B88E190E1FA
:102E3000A0E0B0E08093BB1B9093BC1BA093BD1B94
:102E4000B093BE1B0E94F2CD60910E0280E690E02E
:102E50000E94C6EC0C94A62F8091731B9091741B5A
:102E600090930D0280930C020C94A62F2091731B5B
:102E70003091741B203F310509F44FCE882349F06F
:102E800081E09AE59093C41B8093C31B86E590E094
:102E900008C081E09AE59093C41B8093C31B87E52B
:102EA00090E09093C61B8093C51B87E08093B71B6F
:102EB00082E88093BA1B84E890E0A0E0B0E08093C1
:102EC000BB1B9093BC1BA093BD1BB093BE1B0E9469
:102ED000F2CD1092C41B1092C31B05E00093B71BE8
:102EE00012E81093BA1B80E190E1A0E0B0E080937B
:102EF000BB1B9093BC1BA093BD1BB093BE1B0E9439
:102F0000F2CD1092C41B1092C31B0093B71B1093F9
:102F1000BA1B82E190E1A0E0B0E08093BB1B9093EC
:102F2000BC1BA093BD1BB093BE1B0E94F2CD1092A0
:102F3000BE0C1092BD0C1092300F1092BD05109275
:102F4000BC0510928605109285050E94378215C235
:102F50004A30A0E15A076105710509F082C08091ED
:102F6000731B9091741B813F910511F00C94A62F57
:102F70008091E314882349F081E09AE59093C41B83
:102F80008093C31B86E590E008C081E09AE59093AA
:102F9000C41B8093C31B87E590E09093C61B80936E
:102FA000C51B87E08093B71B82E88093BA1B84E837
:102FB00090E0A0E0B0E08093BB1B9093BC1BA0937B
:102FC000BD1BB093BE1B0E94F2CD81E08093E7143D
:102FD0008091CC0E9091CD0EA091CE0EB091CF0EDF
:102FE0008093BE059093BF05A093C005B093C10523
:102FF0001092BD180E94C0B48091BC059091BD058F
:10300000892B41F480912806909129069093BD0563
:103010008093BC058091850590918605892B41F4AC
:1030200080912606909127069093860580938505CA
:1030300010922706109226060E94BB6581E08093BD
:10304000460F84E080932A0F1092BE0C1092BD0CA4
:1030500086EB94E09093BE118093BD110E94C29DB7
:103060008CC14C3050416105710509F086C18091D9
:10307000731B9091741B019709F07FC180E090E071
:103080000E940AB4892B09F485C08091280690918A
:103090002906893B9105B4F11092840510928305AD
:1030A000A5E0FA2EB2E8EB2E1EE8812E10E1912E5B
:1030B000A12CB12C009183051091840505301105D8
:1030C00014F00C94A62F1093C41B0093C31BF09212
:1030D000B71BE092BA1B8092BB1B9092BC1BA092C4
:1030E000BD1BB092BE1B0E94F2CD60E971E080E092
:1030F00090E00E94BB610F5F1F4F10938405009307
:103100008305D8CF8091E314882311F181E09AE5FB
:103110009093C41B8093C31B8CE290E09093C61BDA
:103120008093C51B87E08093B71B82E88093BA1B0E
:1031300084E890E0A0E0B0E08093BB1B9093BC1BC0
:10314000A093BD1BB093BE1B0E94F2CD0C94A62F82
:1031500081E09AE59093C41B8093C31B81E590E0C6
:103160009093C61B8093C51B87E08093B71B82E8B2
:103170008093BA1B84E890E0A0E0B0E08093BB1B92
:103180009093BC1BA093BD1BB093BE1B0E94F2CDBD
:103190000C94A62F8091E314882349F081E09AE5EE
:1031A0009093C41B8093C31B86E590E008C081E028
:1031B0009AE59093C41B8093C31B87E590E090939E
:1031C000C61B8093C51B87E08093B71B82E8809362
:1031D000BA1B84E890E0A0E0B0E08093BB1B909322
:1031E000BC1BA093BD1BB093BE1B0E94F2CDFE0181
:1031F00031967F0180E1DF011D928A95E9F76091A8
:10320000BE057091BF058091C0059091C1058F01E9
:1032100022E043E00E94EFE10EE915E0FEE1DF2E3F
:10322000F8012D2D11922A95E9F7809186058F934B
:10323000809185058F938DEA94E09F938F931F93E0
:103240000F930E9474E6C8010E948FCFD801ED2D24
:103250001D92EA95E9F78091BD058F938091BC0599
:103260008F9384EA94E09F938F931F930F930E9410
:1032700074E6C8010E948FCFD8011D92DA94E9F755
:10328000FF92EF928DE994E09F938F931F930F939A
:103290000E9474E6C8010E948FCF1092BD05109263
:1032A000BC0510928605109285050FB6F894DEBF16
:1032B0000FBECDBF8091BE18882319F081E08093A6
:1032C000BD180E9468B48091E314882319F081E04E
:1032D00090E002C08DE090E09093C41B8093C31BEC
:1032E00085E08093B71B82E88093BA1B84E190E16C
:1032F000A0E0B0E08093BB1B9093BC1BA093BD1BD0
:10330000B093BE1B0E94F2CD1092460F1092BE0CDD
:103310001092BD0C83E080932A0F81E08093300FE0
:103320008091E314882349F081E09AE59093C41BCF
:103330008093C31B8AE090E008C081E09AE59093F7
:10334000C41B8093C31B84E390E09093C61B8093BF
:10335000C51B87E08093B71B82E88093BA1B84E883
:1033600090E0A0E0B0E08093BB1B9093BC1BA093C7
:10337000BD1BB093BE1B0E94F2CD80916B1B909140
:103380006C1BA0916D1BB0916E1B8C309041A10500
:10339000B10511F00C94A62F8091731B9091741BB2
:1033A000029711F00C94A62F81E080938205809102
:1033B000BC059091BD059093290680932806109234
:1033C0008405109283058091E314882309F181E03C
:1033D0009AE59093C41B8093C31B87E090E0909381
:1033E000C61B8093C51B8093B71B82E88093BA1BD2
:1033F00084E890E0A0E0B0E08093BB1B9093BC1BFE
:10340000A093BD1BB093BE1B0E94F2CD0C94A62FBF
:1034100081E09AE59093C41B8093C31B82E590E002
:103420009093C61B8093C51B87E08093B71B82E8EF
:103430008093BA1B84E890E0A0E0B0E08093BB1BCF
:103440009093BC1BA093BD1BB093BE1B0E94F2CDFA
:103450000C94A62F2091731B3091741BB90180E04E
:1034600090E037FF09C00E94A7E620E030E040E886
:1034700057E40E9440ED02C00E94A7E620E030E041
:1034800048EC52E40E941DEE6093200F7093210FD0
:103490008093220F9093230FC090200FD090210F84
:1034A000E090220FF090230F20E030E040EA51EC52
:1034B000C701B6010E9467EF87FF02C00C94A62FD8
:1034C00020E030E040EA51E4C701B6010E94A3E6E3
:1034D000181614F40C94A62F2091100630911106A2
:1034E00040911206509113068091FD05882311F436
:1034F0000C94A62F0091250D1091260DC701B60141
:103500000E9440ED20E030E048EC53E40E9408E7E0
:103510000E9485EE600F711F7093260D6093250D3C
:103520000C94A62F8091731B9091741B009739F413
:1035300081E0809305021092270F0C94A62F9C0126
:10354000215031092230310510F40C94A62F83301C
:10355000910509F0B8C0909154028091E314992329
:1035600009F464C02FEF30E030932C0F20932B0F21
:10357000109254028823C1F181E09AE59093C41B14
:103580008093C31B8FE090E09093C61B8093C51B74
:1035900087E08093B71B82E88093BA1B84E890E0B1
:1035A000A0E0B0E08093BB1B9093BC1BA093BD1B1D
:1035B000B093BE1B0E94F2CD0C94A62F423320E1A3
:1035C00052076105710509F012C28091731B909139
:1035D000741B009709F0C8C19091E31480915402C4
:1035E0009111BFC181114DC081E09AE59093C41B38
:1035F0008093C31B89E390E09093C61B8093C51B07
:1036000087E08093B71B82E88093BA1B84E890E040
:10361000A0E0B0E08093BB1B9093BC1BA093BD1BAC
:10362000B093BE1B0E94F2CD0C94A62F10922C0FCB
:1036300010922B0F91E090935402882311F181E0B6
:103640009AE59093C41B8093C31B80E190E0909314
:10365000C61B8093C51B87E08093B71B82E88093CD
:10366000BA1B84E890E0A0E0B0E08093BB1B90938D
:10367000BC1BA093BD1BB093BE1B0E94F2CD0C944B
:10368000A62F81E09AE59093C41B8093C31B8AE325
:1036900090E09093C61B8093C51B87E08093B71B77
:1036A00082E88093BA1B84E890E0A0E0B0E08093C9
:1036B000BB1B9093BC1BA093BD1BB093BE1B0E9471
:1036C000F2CD0C94A62F8530910509F04EC080E014
:1036D00090E0A3E4B3E48093000290930102A093EE
:1036E0000202B093030203EC10E01093290600934A
:1036F000280680E00E940566EDE2EE2EF12CF092A5
:103700002706E09226060E94BB651093C41B009317
:10371000C31B05E00093B71B12E81093BA1B84E3A8
:1037200090E1A0E0B0E08093BB1B9093BC1BA09302
:10373000BD1BB093BE1B0E94F2CDF092C41BE09261
:10374000C31B0093B71B1093BA1B8AE390E1A0E060
:10375000B0E08093BB1B9093BC1BA093BD1BB093A8
:10376000BE1B0E94F2CD0C94A62F8630910509F065
:103770004EC080E090E0A0E7B3E480930002909315
:103780000102A0930202B093030200EF10E0109335
:1037900029060093280680E00E9405667EE6E72E53
:1037A000F12CF0922706E09226060E94BB6510934A
:1037B000C41B0093C31B05E00093B71B12E81093D2
:1037C000BA1B84E390E1A0E0B0E08093BB1B909330
:1037D000BC1BA093BD1BB093BE1B0E94F2CDF09208
:1037E000C41BE092C31B0093B71B1093BA1B8AE360
:1037F00090E1A0E0B0E08093BB1B9093BC1BA09332
:10380000BD1BB093BE1B0E94F2CD0C94A62F813F2E
:10381000910511F00C94A62F8FEF90E090932C0F50
:1038200080932B0F109254020E944F661092C41B7B
:103830001092C31B05E00093B71B12E81093BA1B4C
:1038400084E390E1A0E0B0E08093BB1B9093BC1BAD
:10385000A093BD1BB093BE1B0E94F2CD61E070E04F
:1038600080E090E00E94BB611092C41B1092C31BC9
:103870000093B71B1093BA1B8AE390E1A0E0B0E07D
:103880008093BB1B9093BC1BA093BD1BB093BE1B2E
:103890000E94F2CD61E070E080E090E00E94BB61A8
:1038A0008091E314882309F188E090E09093C41B91
:1038B0008093C31B0093B71B1093BA1B84E190E164
:1038C000A0E0B0E08093BB1B9093BC1BA093BD1BFA
:1038D000B093BE1B0E94F2CD81E09AE59093C41B89
:1038E0008093C31B8FE090E020C084E190E0909330
:1038F000C41B8093C31B0093B71B1093BA1B84E1B6
:1039000090E1A0E0B0E08093BB1B9093BC1BA09320
:10391000BD1BB093BE1B0E94F2CD81E09AE590934F
:10392000C41B8093C31B89E390E09093C61B8093D4
:10393000C51B87E08093B71B1093BA1B84E890E007
:10394000A0E0B0E08093BB1B9093BC1BA093BD1B79
:10395000B093BE1B0E94F2CD82E080932A0F0C949C
:10396000A62F81116CCE08CE81309105F1F4109212
:103970002906109228061092C41B1092C31B85E0E2
:103980008093B71B82E88093BA1B84E390E1A0E0A8
:10399000B0E08093BB1B9093BC1BA093BD1BB09366
:1039A000BE1B0E94F2CD0C94A62F029711F00C942E
:1039B000A62F10922706109226061092C41B109272
:1039C000C31B85E08093B71B82E88093BA1B8AE310
:1039D00090E1A0E0B0E08093BB1B9093BC1BA09350
:1039E000BD1BB093BE1B0E94F2CD0C94A62F443396
:1039F00030E153076105710551F48091731B90917B
:103A0000741B90932906809328060C94A62F4A33A2
:103A100050416105710511F00C94A62F8091731B24
:103A20009091741B90932706809326060C94A62FE2
:103A30008091731B9091741B009709F479CD8130AC
:103A4000910509F098C080911406882319F082E04E
:103A500090E002C083E090E09093C41B8093C31B6E
:103A600085E08093B71B82E88093BA1B85E490E1E0
:103A7000A0E0B0E08093BB1B9093BC1BA093BD1B48
:103A8000B093BE1B0E94F2CD8AE090E09093C41BDD
:103A90008093C31B85E08093B71B82E88093BA1B99
:103AA00080E092E1A0E0B0E08093BB1B9093BC1B50
:103AB000A093BD1BB093BE1B0E94F2CD12E01093E9
:103AC000E71489E994E09093BE118093BD110E94A0
:103AD000C29D1093E7148CE894E09093BE118093FC
:103AE000BD110E94C29D8091E314882311F181E0F1
:103AF0009AE59093C41B8093C31B86E190E090935A
:103B0000C61B8093C51B87E08093B71B82E8809318
:103B1000BA1B84E890E0A0E0B0E08093BB1B9093D8
:103B2000BC1BA093BD1BB093BE1B0E94F2CD0C9496
:103B3000A62F81E09AE59093C41B8093C31B80E479
:103B400090E09093C61B8093C51B87E08093B71BC2
:103B500082E88093BA1B84E890E0A0E0B0E0809314
:103B6000BB1B9093BC1BA093BD1BB093BE1B0E94BC
:103B7000F2CD0C94A62F8230910509F0E6C081E0C9
:103B8000809305021092270F88E0E8E7F5E0DF0157
:103B90001D928A95E9F780E090E0A0E2B1E480937D
:103BA000780590937905A0937A05B0937B0580936F
:103BB0007C0590937D05A0937E05B0937F0584E6F8
:103BC00090E09093C41B8093C31B05E00093B71B48
:103BD00012E81093BA1B84E590E1A0E0B0E0809376
:103BE000BB1B9093BC1BA093BD1BB093BE1B0E943C
:103BF000F2CD20E030E040E251E460917C0570912C
:103C00007D0580917E0590917F050E9408E70E94C6
:103C100085EE7093C41B6093C31B0093B71B109376
:103C2000BA1B88E590E1A0E0B0E08093BB1B9093C5
:103C3000BC1BA093BD1BB093BE1B0E94F2CD609134
:103C400002067091030680910406909105060E9479
:103C500085EE7093C41B6093C31B0093B71B109336
:103C6000BA1B86E390E1A0E0B0E08093BB1B909389
:103C7000BC1BA093BD1BB093BE1B0E94F2CD8091D4
:103C80002806909129069093C41B8093C31B009330
:103C9000B71B1093BA1B84E390E1A0E0B0E08093DF
:103CA000BB1B9093BC1BA093BD1BB093BE1B0E947B
:103CB000F2CD62E070E080E090E00E94BB61809114
:103CC000E314882309F181E09AE59093C41B809363
:103CD000C31B87E190E09093C61B8093C51B87E0D0
:103CE0008093B71B1093BA1B84E890E0A0E0B0E08B
:103CF0008093BB1B9093BC1BA093BD1BB093BE1BBA
:103D00000E94F2CD0C94A62F81E09AE59093C41BFB
:103D10008093C31B81E490E09093C61B8093C51BE6
:103D200087E08093B71B1093BA1B84E890E0A0E073
:103D3000B0E08093BB1B9093BC1BA093BD1BB093C2
:103D4000BE1B0E94F2CD0C94A62F8330910509F082
:103D5000C2C01092E00520E030E040E251E4609102
:103D6000C40E7091C50E8091C60E9091C70E0E9430
:103D700008E70E9485EE7093C41B6093C31B05E0A7
:103D80000093B71B12E81093BA1B88E490E1A0E0FF
:103D9000B0E08093BB1B9093BC1BA093BD1BB09362
:103DA000BE1B0E94F2CD20E030E040E251E4609181
:103DB000C80E7091C90E8091CA0E9091CB0E0E94D0
:103DC00008E70E9485EE7093C41B6093C31B0093A9
:103DD000B71B1093BA1B8AE490E1A0E0B0E0809397
:103DE000BB1B9093BC1BA093BD1BB093BE1B0E943A
:103DF000F2CD20E030E040E251E46091CC0E7091D1
:103E0000CD0E8091CE0E9091CF0E0E9408E70E94B9
:103E100085EE7093C41B6093C31B0093B71B109374
:103E2000BA1B8CE490E1A0E0B0E08093BB1B9093C0
:103E3000BC1BA093BD1BB093BE1B0E94F2CD62E0E1
:103E400070E080E090E00E94BB618091E3148823E1
:103E500009F181E09AE59093C41B8093C31B8DE127
:103E600090E09093C61B8093C51B87E08093B71B9F
:103E70001093BA1B84E890E0A0E0B0E08093BB1BF5
:103E80009093BC1BA093BD1BB093BE1B0E94F2CDB0
:103E90000C94A62F81E09AE59093C41B8093C31BDA
:103EA00087E490E09093C61B8093C51B87E08093C6
:103EB000B71B1093BA1B84E890E0A0E0B0E08093B9
:103EC000BB1B9093BC1BA093BD1BB093BE1B0E9459
:103ED000F2CD0C94A62F8430910511F40C94A62FEA
:103EE00085309105A1F48091E3144EE750E160E044
:103EF00070E0882331F081E593E00E94C2B30C9416
:103F0000A62F84E693E00E94C2B30C94A62F0697D6
:103F100011F00C94A62F88E894E09093BE11809342
:103F2000BD110E94C29D8BE090E09093C41B8093D2
:103F3000C31B85E08093B71B82E88093BA1B80E0A7
:103F400092E1A0E0B0E08093BB1B9093BC1BA093D8
:103F5000BD1BB093BE1B0E94F2CD0C94A62F809186
:103F6000731B9091741B019709F077C080EA9FE062
:103F70009093BE0C8093BD0C10920502C090200F50
:103F8000D090210FE090220FF090230FA70196010F
:103F9000609110067091110680911206909113069F
:103FA0000E94A3E6882361F1C0921006D092110608
:103FB000E0921206F092130620E030E048EC52E462
:103FC000C701B6010E9408E70E9485EE7093C41BEA
:103FD0006093C31B85E08093B71B82E88093BA1B74
:103FE00086E290E1A0E0B0E08093BB1B9093BC1B05
:103FF000A093BD1BB093BE1B0E94F2CD0E94558FB3
:104000008091E314882349F081E09AE59093C41BE2
:104010008093C31B85E190E008C081E09AE590930E
:10402000C41B8093C31B8FE390E09093C61B8093C7
:10403000C51B87E08093B71B82E88093BA1B84E896
:1040400090E0A0E0B0E08093BB1B9093BC1BA093DA
:10405000BD1BB093BE1B0E94F2CD8091731B90914B
:10406000741B029711F00C94A62F3DCD8091731B09
:104070009091741B8130910509F044C00E947557DE
:104080008091FB05882321F08091FC05811103C0FC
:1040900084E894E002C08DE794E09093BE11809391
:1040A000BD110E94C29D8FE694E09093BE11809353
:1040B000BD110E94C29D6091200F7091210F8091CF
:1040C000220F9091230F6093100670931106809336
:1040D00012069093130620E030E048EC52E40E9470
:1040E00008E70E9485EE7093C41B6093C31B85E0B4
:1040F0008093B71B82E88093BA1B86E290E1A0E030
:10410000B0E0B1C08230910569F52DEC3CEC4CEC8F
:104110005DE36091200F7091210F8091220F9091AB
:10412000230F0E9441ED6B017C0120E030E040EA6A
:1041300051EC0E9467EF87FD1CC220E030E040EAAE
:1041400051E4C701B6010E94A3E618160CF411C28F
:104150008091FD058823C9F18091250D9091260D50
:1041600088962FC083309105C9F52DEC3CEC4CECC2
:104170005DE36091200F7091210F8091220F90914B
:10418000230F0E9440ED6B017C0120E030E040EA0B
:1041900051EC0E9467EF87FDECC120E030E040EA7F
:1041A00051E4C701B6010E94A3E618160CF4E1C160
:1041B0008091FD05882349F08091250D9091260D71
:1041C00088979093260D8093250DC092200FD09252
:1041D000210FE092220FF092230FCBC18430910582
:1041E00009F04CC084E08093E71482E694E0909359
:1041F000BE118093BD110E94C29D8EE594E0909304
:10420000BE118093BD110E94C29D82E08093E7148D
:1042100081E594E09093BE118093BD110E94C29DF0
:104220008091E314882349F081E09AE59093C41BC0
:104230008093C31B8CE190E008C081E09AE59093E5
:10424000C41B8093C31B84E590E09093C61B8093AE
:10425000C51B87E08093B71B82E88093BA1B84E874
:1042600090E0A0E0B0E08093BB1B9093BC1BA093B8
:10427000BD1BB093BE1B0E94F2CD7BC18530910562
:1042800009F064C083E08093E71481E090E09093AC
:10429000C41B8093C31B85E08093B71B12E8109367
:1042A000BA1B8DE890E1A0E0B0E08093BB1B909337
:1042B000BC1BA093BD1BB093BE1B0E94F2CD80918E
:1042C000E314882349F081E09AE59093C41B80931E
:1042D000C31B8BE290E008C081E09AE59093C41B79
:1042E0008093C31B85E590E09093C61B8093C51B0C
:1042F00087E08093B71B1093BA1B84E890E0A0E09E
:10430000B0E08093BB1B9093BC1BA093BD1BB093EC
:10431000BE1B0E94F2CD8DE494E09093BE11809379
:10432000BD110E94C29D8EE394E09093BE118093D4
:10433000BD110E94C29D8BE294E09093BE118093C8
:10434000BD110E94C29D8EE194E08BC08630910524
:10435000C9F484E08093E71482E194E09093BE1165
:104360008093BD110E94C29D8FEF93E09093BE1188
:104370008093BD110E94C29D82E08093E71483EF79
:1043800093E06FC087309105C9F484E08093E7140F
:1043900087EE93E09093BE118093BD110E94C29D61
:1043A00086ED93E09093BE118093BD110E94C29D53
:1043B00082E08093E7148AEC93E053C08830910543
:1043C000C9F484E08093E7148EEB93E09093BE11E0
:1043D0008093BD110E94C29D8CEA93E09093BE1120
:1043E0008093BD110E94C29D82E08093E71480EA11
:1043F00093E037C089309105C9F484E08093E714D5
:1044000084E993E09093BE118093BD110E94C29DF8
:1044100081E893E09093BE118093BD110E94C29DEC
:1044200082E08093E71485E793E01BC08A30910512
:10443000F9F484E08093E71489E693E09093BE1149
:104440008093BD110E94C29D87E593E09093BE11B9
:104450008093BD110E94C29D82E08093E7148BE49B
:1044600093E09093BE118093BD110E94C29D81C0C4
:104470000B9709F07EC0809114068823F9F083E041
:1044800090E09093C41B8093C31B85E08093B71B7F
:1044900082E88093BA1B85E490E1A0E0B0E08093CD
:1044A000BB1B9093BC1BA093BD1BB093BE1B0E9473
:1044B000F2CD1092140683E493E01FC082E090E0F6
:1044C0009093C41B8093C31B85E08093B71B82E845
:1044D0008093BA1B85E490E1A0E0B0E08093BB1B21
:1044E0009093BC1BA093BD1BB093BE1B0E94F2CD4A
:1044F00081E0809314068BE393E09093BE11809348
:10450000BD110E94C29D6091200F7091210F80917A
:10451000220F9091230F60931006709311068093E1
:1045200012069093130620E030E048EC52E40E941B
:1045300008E70E9485EE7093C41B6093C31B85E05F
:104540008093B71B82E88093BA1B86E290E1A0E0DB
:10455000B0E08093BB1B9093BC1BA093BD1BB0939A
:10456000BE1B0E94F2CD609114068CE590E00E9483
:10457000C6EC8AE090E09093C41B8093C31B85E057
:104580008093B71B82E88093BA1B80E092E1A0E0A1
:10459000B0E08093BB1B9093BC1BA093BD1BB0935A
:1045A000BE1B0E94F2CD0C94A62F84E08093E714EA
:1045B0008091731B9091741B4834B0E15B076105D7
:1045C000710509F44EC04A34E0E15E0761057105EA
:1045D00009F450C04C34F0E15F076105710509F43E
:1045E00052C0463450416105710509F054C0833012
:1045F000910589F587E393E09093BE118093BD11F7
:104600000E94C29D89E293E09093BE118093BD11F8
:104610000E94C29D81E08093E10580930502109283
:1046200077051092BE0C1092BD0C8091E314882384
:1046300049F081E09AE59093C41B8093C31B80E20C
:1046400090E003CE81E09AE59093C41B8093C31B56
:104650008AE490E0FACD8093E0051092E7140C9480
:10466000A62FC12CD12C6BE9E62E63E4F62E00E0D8
:1046700010E011C0C12CD12C5BE9E52E53E4F52EDE
:1046800001E010E008C0C12CD12C49ECE42E43E439
:10469000F42E02E010E0BC0180E090E00E94A7E66A
:1046A00020E030E040E251E40E941DEE2B013C018D
:1046B00020E030E0A9010E94A3E65801AA0CBB1C2F
:1046C000AA0CBB1C87FF08C0F501EC53F14F108208
:1046D00011821282138214C0A7019601C301B20194
:1046E0000E9467EFF501EC53F14F18162CF0408251
:1046F00051826282738204C0C082D182E282F382DC
:104700000230110509F079C082E090E00E94FD4A74
:1047100020E030E040E251E46091C40E7091C50E9B
:104720008091C60E9091C70E0E9408E70E9485EE08
:104730007093C41B6093C31B05E00093B71B12E882
:104740001093BA1B88E490E1A0E0B0E08093BB1B1B
:104750009093BC1BA093BD1BB093BE1B0E94F2CDD7
:1047600020E030E040E251E46091C80E7091C90E43
:104770008091CA0E9091CB0E0E9408E70E9485EEB0
:104780007093C41B6093C31B0093B71B1093BA1B99
:104790008AE490E1A0E0B0E08093BB1B9093BC1B47
:1047A000A093BD1BB093BE1B0E94F2CD20E030E071
:1047B00040E251E46091CC0E7091CD0E8091CE0E0E
:1047C0009091CF0E0E9408E70E9485EE7093C41B63
:1047D0006093C31B0093B71B1093BA1B8CE490E14A
:1047E000A0E0B0E08093BB1B9093BC1BA093BD1BCB
:1047F000B093BE1B0E94F2CD03C0C8010E94FD4AC7
:1048000061E070E080E090E00E94BB618AE090E0AF
:104810009093C41B8093C31B85E08093B71B82E8F1
:104820008093BA1B80E092E1A0E0B0E08093BB1BD4
:104830009093BC1BA093BD1BB093BE1B0E94F2CDF6
:104840001092E7140C94A62F83E090E00E940AB423
:10485000892B11F00C94A62F80916B1B90916C1BEF
:10486000A0916D1BB0916E1B863530E19307A105B9
:10487000B10509F0DFC28091731B9091741B8130E8
:104880009105C9F480912A068093760510922A0634
:10489000209178053091790540917A0550917B05FA
:1048A0006091D00E7091D10E8091D20E9091D30E66
:1048B0000E9440ED1CC08230910509F008C1809132
:1048C0002A068093760510922A0620917805309169
:1048D000790540917A0550917B056091D00E7091D9
:1048E000D10E8091D20E9091D30E0E9441ED609333
:1048F000D00E7093D10E8093D20E9093D30E8091F0
:104900008105882309F458C083E090E00E94FD4AA5
:1049100020E030E040E251E4609178057091790543
:1049200080917A0590917B050E9408E70E9485EEB0
:104930007093C41B6093C31B05E00093B71B12E880
:104940001093BA1B84E590E1A0E0B0E08093BB1B1C
:104950009093BC1BA093BD1BB093BE1B0E94F2CDD5
:1049600020E030E040E251E460917C0570917D05EB
:1049700080917E0590917F050E9408E70E9485EE58
:104980007093C41B6093C31B0093B71B1093BA1B97
:1049900088E590E1A0E0B0E08093BB1B9093BC1B46
:1049A000A093BD1BB093BE1B0E94F2CD80917605F3
:1049B00080932A060C94A62FC0900002D09001028A
:1049C000E0900202F090030220E030E040EA50E480
:1049D000C701B6010E9440ED9B01AC016091020647
:1049E0007091030680910406909105060E94A3E64B
:1049F00087FF8ACF81E080938105C701B6010E94BD
:104A000085EE7093C41B6093C31B85E08093B71B36
:104A100082E88093BA1B80E290E1A0E0B0E080934E
:104A2000BB1B9093BC1BA093BD1BB093BE1B0E94ED
:104A3000F2CD65E070E080E090E00E94BB61809183
:104A4000E314882311F181E09AE59093C41B8093CD
:104A5000C31B88E190E09093C61B8093C51B87E041
:104A60008093B71B82E88093BA1B84E890E0A0E0B3
:104A7000B0E08093BB1B9093BC1BA093BD1BB09375
:104A8000BE1B0E94F2CD0C94A62F81E09AE5909374
:104A9000C41B8093C31B82E490E09093C61B809359
:104AA000C51B87E08093B71B82E88093BA1B84E81C
:104AB00090E0A0E0B0E08093BB1B9093BC1BA09360
:104AC000BD1BB093BE1B0E94F2CD0C94A62F833069
:104AD0009105D1F480912A068093760511E0109318
:104AE0002A0620917C0530917D0540917E055091EC
:104AF0007F056091D00E7091D10E8091D20E909171
:104B0000D30E0E9440ED1DC08430910509F046C0CF
:104B100080912A068093760511E010932A06209151
:104B20007C0530917D0540917E0550917F05609117
:104B3000D00E7091D10E8091D20E9091D30E0E9422
:104B400041ED6093D00E7093D10E8093D20E90936E
:104B5000D30E809181058111D7CEC0900002D090F4
:104B60000102E0900202F090030220E030E040EA0F
:104B700050E4C701B6010E9440ED9B01AC01609179
:104B800002067091030680910406909105060E942A
:104B9000A3E687FFB9CE109381052FCF853091050D
:104BA00009F0E6C081E0809380050091280610910D
:104BB0002906C0900002D0900102E0900202F0901D
:104BC0000302B801012E000C880B990B0E94A9E684
:104BD000A70196010E9467EF87FF05C0C701B601D4
:104BE0000E9485EE8B01109329060093280620E091
:104BF00030E048EC52E46091020670910306809127
:104C00000406909105060E9408E76B017C01B8013B
:104C1000110F880B990B0E94A9E69B01AC01C701FB
:104C2000B6010E941DEE0E948AEE6436710510F0F6
:104C300064E670E07093C41B6093C31B05E00093AF
:104C4000B71B12E81093BA1B84E290E1A0E0B0E039
:104C50008093BB1B9093BC1BA093BD1BB093BE1B4A
:104C60000E94F2CD609102067091030680910406C5
:104C7000909105060E9485EE7093C41B6093C31B40
:104C80000093B71B1093BA1B86E390E1A0E0B0E05D
:104C90008093BB1B9093BC1BA093BD1BB093BE1B0A
:104CA0000E94F2CD80912806909129069093C41B12
:104CB0008093C31B0093B71B1093BA1B84E390E14E
:104CC000A0E0B0E08093BB1B9093BC1BA093BD1BE6
:104CD000B093BE1B0E94F2CD65E070E080E090E0F2
:104CE0000E94BB618091E314882309F181E09AE579
:104CF0009093C41B8093C31B8AE190E09093C61BE2
:104D00008093C51B87E08093B71B1093BA1B84E880
:104D100090E0A0E0B0E08093BB1B9093BC1BA093FD
:104D2000BD1BB093BE1B0E94F2CD0C94A62F81E058
:104D30009AE59093C41B8093C31B84E490E0909306
:104D4000C61B8093C51B87E08093B71B1093BA1BCB
:104D500084E890E0A0E0B0E08093BB1B9093BC1B84
:104D6000A093BD1BB093BE1B0E94F2CD0C94A62F46
:104D70008630910509F04AC0109281058091E314B4
:104D8000882311F181E09AE59093C41B8093C31BA3
:104D900087E190E09093C61B8093C51B87E08093CA
:104DA000B71B82E88093BA1B84E890E0A0E0B0E0F3
:104DB0008093BB1B9093BC1BA093BD1BB093BE1BE9
:104DC0000E94F2CD0C94A62F81E09AE59093C41B2B
:104DD0008093C31B81E490E09093C61B8093C51B16
:104DE00087E08093B71B82E88093BA1B84E890E049
:104DF000A0E0B0E08093BB1B9093BC1BA093BD1BB5
:104E0000B093BE1B0E94F2CD0C94A62F813F91055A
:104E100059F4109281051092800561E070E080E005
:104E200090E00E94BB61AACF803F910509F06CCD54
:104E30000C94A62F8435E0E19E07A105B105C1F4CD
:104E40006091731B7091741B80E090E00E94A7E654
:104E500020E030E040E251E40E941DEE60937805CE
:104E60007093790580937A0590937B050C94A62F17
:104E700088359041A105B10511F00C94A62F6091E1
:104E8000731B7091741B80E090E00E94A7E620E005
:104E900030E040E251E40E941DEE60937C05709387
:104EA0007D0580937E0590937F050C94A62F6091DD
:104EB000731B6093E3148AE590E00E94C6EC909126
:104EC000BE188091E3149923C1F18823D1F0109288
:104ED000C41B1092C31B85E08093B71B82E88093AC
:104EE000BA1B84E190E1A0E0B0E08093BB1B9093FB
:104EF000BC1BA093BD1BB093BE1B0E94F2CD0C94B3
:104F0000A62F8CE090E09093C41B8093C31B85E098
:104F10008093B71B82E88093BA1B84E190E1A0E004
:104F2000B0E08093BB1B9093BC1BA093BD1BB093C0
:104F3000BE1B0E94F2CD0C94A62F8823D9F086E0E8
:104F400090E09093C41B8093C31B85E08093B71BB4
:104F500082E88093BA1B84E190E1A0E0B0E0809306
:104F6000BB1B9093BC1BA093BD1BB093BE1B0E94A8
:104F7000F2CDECC782E190E09093C41B8093C31BF9
:104F800085E08093B71B82E88093BA1B84E190E1AF
:104F9000A0E0B0E08093BB1B9093BC1BA093BD1B13
:104FA000B093BE1B0E94F2CDD1C78091731B90912C
:104FB000741B8130910509F0C8C180E090E00E9427
:104FC0000AB4892B09F0C2C78091E414813009F03A
:104FD000F4C08AE895E00E948FCF85E293E0909339
:104FE000BE118093BD110E94C29DC12C20E2D22E21
:104FF000E12CF12C05E012E81092C41B1092C31BA7
:105000000093B71B1093BA1BC092BB1BD092BC1B62
:10501000E092BD1BF092BE1B0E94F2CD2FEFC21A90
:10502000D20AE20AF20A3AE0C31630E2D306E104F9
:10503000F10411F780918905A2E18A02C0011124CF
:10504000FC01ED5EFD4E7F0101900020E9F7A70114
:105050004E1B5F0B4D5E5F4F57FF02C04F5F5F4FB0
:105060008A011595079510161106DCF49E012F5F35
:105070003F4F690184E1D9011D928A95E9F7A801A2
:1050800066E773E0C9010E94ACF0B701C601800F6A
:10509000911F0E9497F040E050E260E070E0C6018E
:1050A00005C040E050E260E070E0C7010E94C2B37A
:1050B00062E070E080E090E00E94BB618091E314C8
:1050C000882349F181E090E09093C41B8093C31B37
:1050D00085E08093B71B12E81093BA1B84E190E13E
:1050E000A0E0B0E08093BB1B9093BC1BA093BD1BC2
:1050F000B093BE1B0E94F2CD62E070E080E090E0D1
:105100000E94BB6181E09AE59093C41B8093C31B0E
:105110008AE090E028C08DE090E09093C41B8093DB
:10512000C31B85E08093B71B12E81093BA1B84E180
:1051300090E1A0E0B0E08093BB1B9093BC1BA093D8
:10514000BD1BB093BE1B0E94F2CD62E070E080E018
:1051500090E00E94BB6181E09AE59093C41B80932C
:10516000C31B84E390E09093C61B8093C51B87E02C
:105170008093B71B1093BA1B84E890E0A0E0B0E0E6
:105180008093BB1B9093BC1BA093BD1BB093BE1B15
:105190000E94F2CD81E0809305028093270F8093D7
:1051A000290F93E090932A0F8093300F1092460FAF
:1051B000109289051092E414C9C6823009F0C1C06A
:1051C0007E01BFE1EB0EF11C80E1F70111928A959F
:1051D000E9F76091BE057091BF058091C00590917F
:1051E000C105870122E043E00E94EFE1809186053E
:1051F0008F93809185058F938CE193E09F938F939C
:105200000E5111091F930F930E9474E6C8010E946A
:105210008FCF8EE1D82ED801ED2D1D92EA95E9F7BA
:105220008091BD058F938091BC058F9383E193E0BE
:105230009F938F931F930F930E9474E6C8010E945F
:105240008FCFD8011D92DA94E9F7FF92EF928CE0AC
:1052500093E09F938F931F930F930E9474E6C8016E
:105260000E948FCF1092BD051092BC05109286054A
:10527000109285050FB6F894DEBF0FBECDBF8091AA
:10528000BE18882319F081E08093BD180E9468B48D
:105290008091E314882319F081E090E002C08DE052
:1052A00090E09093C41B8093C31B85E08093B71B51
:1052B00082E88093BA1B84E190E1A0E0B0E08093A3
:1052C000BB1B9093BC1BA093BD1BB093BE1B0E9445
:1052D000F2CD1092460F83E080932A0F81E08093F5
:1052E000300F8091E314882349F081E09AE5909390
:1052F000C41B8093C31B8AE090E008C081E09AE55C
:105300009093C41B8093C31B84E390E09093C61BCF
:105310008093C51B87E08093B71B82E88093BA1BFC
:1053200084E890E0A0E0B0E08093BB1B9093BC1BAE
:10533000A093BD1BB093BE1B0E94F2CD1092E4144B
:1053400005C6833009F002C619CD892B09F0FEC5C8
:105350008091E414813081F58091E314882349F031
:1053600081E09AE59093C41B8093C31B82E090E098
:1053700008C081E09AE59093C41B8093C31B8EE222
:1053800090E09093C61B8093C51B87E08093B71B6A
:1053900082E88093BA1B84E890E0A0E0B0E08093BC
:1053A000BB1B9093BC1BA093BD1BB093BE1B0E9464
:1053B000F2CD1092290F47C08230B1F48091E314EE
:1053C000882349F081E09AE59093C41B8093C31B26
:1053D0008CE090E020C081E09AE59093C41B80931C
:1053E000C31B86E390E017C0833069F58091E31416
:1053F000882349F081E09AE59093C41B8093C31BF6
:1054000087E190E008C081E09AE59093C41B809307
:10541000C31B81E490E09093C61B8093C51B87E07B
:105420008093B71B82E88093BA1B84E890E0A0E0E9
:10543000B0E08093BB1B9093BC1BA093BD1BB093AB
:10544000BE1B0E94F2CD1092E41480C5E090731B45
:10545000F090741BF1E0EF16F10409F043C1809164
:105460002D0F90912E0F181619060CF06FC5809114
:105470009D158F9380919C158F9383E093E09F936C
:105480008F938E010F5F1F4F1F930F930E9474E63F
:10549000C8010E948FCF809195158F9380919415AC
:1054A0008F938AEF92E09F938F931F930F930E94A5
:1054B00074E6C8010E948FCF80EF92E09093BE11F6
:1054C0008093BD110E94C29D80919F158F93809102
:1054D0009E158F938CEE92E09F938F931F930F9363
:1054E0000E9474E6C8010E948FCFF0927505E09289
:1054F00074058FEF90E090932C0F80932B0F1092F8
:1055000054021092460F81E08093290F93E090930C
:105510002A0F8093E405809305028093270F8093E0
:10552000300F1092BE0C1092BD0C1092E305109239
:10553000E2050FB6F894DEBF0FBECDBF8091E31435
:10554000882309F1F092C41BE092C31B85E080938D
:10555000B71B12E81093BA1B84E190E1A0E0B0E021
:105560008093BB1B9093BC1BA093BD1BB093BE1B31
:105570000E94F2CD81E09AE59093C41B8093C31BF7
:105580008AE090E022C08DE090E09093C41B80936D
:10559000C31B85E08093B71B12E81093BA1B84E10C
:1055A00090E1A0E0B0E08093BB1B9093BC1BA09364
:1055B000BD1BB093BE1B0E94F2CD81E09AE5909393
:1055C000C41B8093C31B84E390E09093C61B80931D
:1055D000C51B87E08093B71B1093BA1B84E890E04B
:1055E000A0E0B0E08093BB1B9093BC1BA093BD1BBD
:1055F000B093BE1B0E94F2CD9091E31480910E02F5
:105600009923C1F18823D9F087E090E09093C41BDF
:105610008093C31B85E08093B71B82E88093BA1BFD
:1056200088E190E1A0E0B0E08093BB1B9093BC1BAD
:10563000A093BD1BB093BE1B0E94F2CD87C488E02F
:1056400090E09093C41B8093C31B85E08093B71BAD
:1056500082E88093BA1B88E190E1A0E0B0E08093FB
:10566000BB1B9093BC1BA093BD1BB093BE1B0E94A1
:10567000F2CD6CC48823D9F089E090E09093C41BEC
:105680008093C31B85E08093B71B82E88093BA1B8D
:1056900088E190E1A0E0B0E08093BB1B9093BC1B3D
:1056A000A093BD1BB093BE1B0E94F2CD4FC48AE0F5
:1056B00090E09093C41B8093C31B85E08093B71B3D
:1056C00082E88093BA1B88E190E1A0E0B0E080938B
:1056D000BB1B9093BC1BA093BD1BB093BE1B0E9431
:1056E000F2CD34C432E0E316F10409F02FC481E0B6
:1056F000809305021092270F80EA9FE09093BE0CE2
:105700008093BD0C8091E314882349F081E09AE5F1
:105710009093C41B8093C31B81E090E008C081E09C
:105720009AE59093C41B8093C31B8DE290E0909305
:10573000C61B8093C51B87E08093B71B82E88093CC
:10574000BA1B84E890E0A0E0B0E08093BB1B90938C
:10575000BC1BA093BD1BB093BE1B0E94F2CD0E9448
:10576000DCA58091260F8093250F1092240F0E94B4
:105770004DC40E944F666AE58BEB97E10E9427CFEC
:1057800010927B151092CB170E9480CF019669F47E
:1057900000E813E0F80181918F01882319F00E943D
:1057A000209FF8CF8AE00E94209F87EA9AE10E941A
:1057B0004D9C10922E0F10922D0F109253021092AA
:1057C000290F64EF71E080E090E00E94BB61BEC3EE
:1057D0008091731B9091741B8F3F910531F028F0DD
:1057E0008FEF90E0A0E0B0E002C0A0E0B0E08093D6
:1057F0000F0290931002A0931102B09312028091B5
:105800000F0290911002A0911102B0911202009724
:10581000A105B10519F51092C41B1092C31B05E038
:105820000093B71B12E81093BA1B8AE890E1A0E03E
:10583000B0E08093BB1B9093BC1BA093BD1BB093A7
:10584000BE1B0E94F2CD89E090E09093C41B809330
:10585000C31B0093B71B1093BA1B22C00196A11D56
:10586000B11D15E0B695A795979587951A95D1F72F
:10587000BC01CD0161507109810991092AE830E12B
:1058800040E050E00E949EB388E090E09093C41BFB
:105890008093C31B85E08093B71B82E88093BA1B7B
:1058A0008CE890E1A0E0B0E08093BB1B9093BC1B20
:1058B000A093BD1BB093BE1B0E94F2CD60910F025E
:1058C0008EE590E00E94C6EC80910F02909110024C
:1058D000A0911102B09112026627782F892F9A2F7A
:1058E00021EA30E040E050E00E949EB32FC32091B7
:1058F000BE18222309F456C1433DF0E25F0761055B
:10590000710509F04FC18091731B9091741B209118
:10591000C1113091C2112817390708F417C38150FB
:105920008093C011E4ED8E2EE0E29E2EA12CB12CCE
:1059300005E012E81092C41B1092C31B0093B71B22
:105940001093BA1B8092BB1B9092BC1BA092BD1BF4
:10595000B092BE1B0E94F2CD2FEF821A920AA20AC9
:10596000B20A3EED831630E29306A104B10411F7AA
:105970008091C011A2E18A02C0011124FC01ED5EF8
:10598000FD4E7F0101900020E9F7A7014E1B5F0B40
:105990004D5E5F4F57FF02C04F5F5F4F8A01159505
:1059A000079510161106FCF49E012F5F3F4F690109
:1059B00084E1D9011D928A95E9F7A80166E773E0B1
:1059C000C9010E94ACF0B701C601800F911F0E946F
:1059D00097F044ED50E260E070E0C6010E94C2B36F
:1059E00005E012E806C044ED50E260E070E0C70157
:1059F000F5CF1092C41B1092C31B0093B71B1093DA
:105A0000BA1B8092BB1B9092BC1BA092BD1BB09294
:105A1000BE1B0E94F2CDBFEF8B1A9B0AAB0ABB0ADA
:105A2000E6EE8E16E0E29E06A104B10411F78E01A7
:105A30000F5F1F4F84E1D8011D928A95E9F780918D
:105A4000C2118F938091C1118F938091741B8F939A
:105A50008091731B8F9385EA93E09F938F931F939D
:105A60000F930E94BBF04EED50E260E070E0C80181
:105A70000E94C2B362E070E080E090E00E94BB61EF
:105A80000FB6F894DEBF0FBECDBF31E2C32E32E1B8
:105A9000D32EE12CF12C43E1442E40E6542E612C10
:105AA000712C88248A94982C15E002E86AE0A62ECE
:105AB000B12C2091C1113091C211C6018052924186
:105AC000281739077CF19092C41B8092C31B109356
:105AD000B71B0093BA1B4092BB1B5092BC1B609239
